{
  "_format": "hh-sol-artifact-1",
  "contractName": "CrossChainProofOfHumanity",
  "sourceName": "contracts/CrossChainProofOfHumanity.sol",
  "abi": [
    {
      "anonymous": false,
      "inputs": [
        {
          "indexed": true,
          "internalType": "address",
          "name": "bridgeGateway",
          "type": "address"
        },
        {
          "indexed": false,
          "internalType": "address",
          "name": "foreignProxy",
          "type": "address"
        }
      ],
      "name": "GatewayAdded",
      "type": "event"
    },
    {
      "anonymous": false,
      "inputs": [
        {
          "indexed": true,
          "internalType": "address",
          "name": "bridgeGateway",
          "type": "address"
        }
      ],
      "name": "GatewayRemoved",
      "type": "event"
    },
    {
      "anonymous": false,
      "inputs": [
        {
          "indexed": true,
          "internalType": "bytes20",
          "name": "humanityId",
          "type": "bytes20"
        },
        {
          "indexed": true,
          "internalType": "address",
          "name": "owner",
          "type": "address"
        },
        {
          "indexed": false,
          "internalType": "uint40",
          "name": "expirationTime",
          "type": "uint40"
        },
        {
          "indexed": false,
          "internalType": "address",
          "name": "gateway",
          "type": "address"
        },
        {
          "indexed": false,
          "internalType": "bytes32",
          "name": "transferHash",
          "type": "bytes32"
        }
      ],
      "name": "TransferInitiated",
      "type": "event"
    },
    {
      "anonymous": false,
      "inputs": [
        {
          "indexed": true,
          "internalType": "bytes20",
          "name": "humanityId",
          "type": "bytes20"
        },
        {
          "indexed": true,
          "internalType": "address",
          "name": "owner",
          "type": "address"
        },
        {
          "indexed": false,
          "internalType": "uint40",
          "name": "expirationTime",
          "type": "uint40"
        },
        {
          "indexed": false,
          "internalType": "bytes32",
          "name": "transferHash",
          "type": "bytes32"
        }
      ],
      "name": "TransferReceived",
      "type": "event"
    },
    {
      "anonymous": false,
      "inputs": [
        {
          "indexed": true,
          "internalType": "bytes20",
          "name": "humanityId",
          "type": "bytes20"
        },
        {
          "indexed": true,
          "internalType": "address",
          "name": "owner",
          "type": "address"
        },
        {
          "indexed": false,
          "internalType": "uint40",
          "name": "expirationTime",
          "type": "uint40"
        },
        {
          "indexed": false,
          "internalType": "bool",
          "name": "claimed",
          "type": "bool"
        },
        {
          "indexed": false,
          "internalType": "address",
          "name": "gateway",
          "type": "address"
        }
      ],
      "name": "UpdateInitiated",
      "type": "event"
    },
    {
      "anonymous": false,
      "inputs": [
        {
          "indexed": true,
          "internalType": "bytes20",
          "name": "humanityId",
          "type": "bytes20"
        },
        {
          "indexed": true,
          "internalType": "address",
          "name": "owner",
          "type": "address"
        },
        {
          "indexed": false,
          "internalType": "uint40",
          "name": "expirationTime",
          "type": "uint40"
        },
        {
          "indexed": false,
          "internalType": "bool",
          "name": "claimed",
          "type": "bool"
        }
      ],
      "name": "UpdateReceived",
      "type": "event"
    },
    {
      "inputs": [
        {
          "internalType": "address",
          "name": "_bridgeGateway",
          "type": "address"
        },
        {
          "internalType": "address",
          "name": "_foreignProxy",
          "type": "address"
        }
      ],
      "name": "addBridgeGateway",
      "outputs": [],
      "stateMutability": "nonpayable",
      "type": "function"
    },
    {
      "inputs": [
        {
          "internalType": "bytes20",
          "name": "_humanityId",
          "type": "bytes20"
        }
      ],
      "name": "boundTo",
      "outputs": [
        {
          "internalType": "address",
          "name": "owner",
          "type": "address"
        }
      ],
      "stateMutability": "view",
      "type": "function"
    },
    {
      "inputs": [
        {
          "internalType": "address",
          "name": "",
          "type": "address"
        }
      ],
      "name": "bridgeGateways",
      "outputs": [
        {
          "internalType": "address",
          "name": "foreignProxy",
          "type": "address"
        },
        {
          "internalType": "bool",
          "name": "approved",
          "type": "bool"
        }
      ],
      "stateMutability": "view",
      "type": "function"
    },
    {
      "inputs": [
        {
          "internalType": "address",
          "name": "_governor",
          "type": "address"
        }
      ],
      "name": "changeGovernor",
      "outputs": [],
      "stateMutability": "nonpayable",
      "type": "function"
    },
    {
      "inputs": [
        {
          "internalType": "contract IProofOfHumanity",
          "name": "_proofOfHumanity",
          "type": "address"
        }
      ],
      "name": "changeProofOfHumanity",
      "outputs": [],
      "stateMutability": "nonpayable",
      "type": "function"
    },
    {
      "inputs": [],
      "name": "governor",
      "outputs": [
        {
          "internalType": "address",
          "name": "",
          "type": "address"
        }
      ],
      "stateMutability": "view",
      "type": "function"
    },
    {
      "inputs": [
        {
          "internalType": "bytes20",
          "name": "",
          "type": "bytes20"
        }
      ],
      "name": "humanityData",
      "outputs": [
        {
          "internalType": "address",
          "name": "owner",
          "type": "address"
        },
        {
          "internalType": "uint40",
          "name": "expirationTime",
          "type": "uint40"
        },
        {
          "internalType": "uint40",
          "name": "lastTransferTime",
          "type": "uint40"
        },
        {
          "internalType": "bool",
          "name": "isHomeChain",
          "type": "bool"
        }
      ],
      "stateMutability": "view",
      "type": "function"
    },
    {
      "inputs": [
        {
          "internalType": "address",
          "name": "_account",
          "type": "address"
        }
      ],
      "name": "humanityOf",
      "outputs": [
        {
          "internalType": "bytes20",
          "name": "humanityId",
          "type": "bytes20"
        }
      ],
      "stateMutability": "view",
      "type": "function"
    },
    {
      "inputs": [
        {
          "internalType": "contract IProofOfHumanity",
          "name": "_proofOfHumanity",
          "type": "address"
        },
        {
          "internalType": "uint256",
          "name": "_transferCooldown",
          "type": "uint256"
        }
      ],
      "name": "initialize",
      "outputs": [],
      "stateMutability": "nonpayable",
      "type": "function"
    },
    {
      "inputs": [],
      "name": "initialized",
      "outputs": [
        {
          "internalType": "bool",
          "name": "",
          "type": "bool"
        }
      ],
      "stateMutability": "view",
      "type": "function"
    },
    {
      "inputs": [
        {
          "internalType": "bytes20",
          "name": "_humanityId",
          "type": "bytes20"
        }
      ],
      "name": "isClaimed",
      "outputs": [
        {
          "internalType": "bool",
          "name": "",
          "type": "bool"
        }
      ],
      "stateMutability": "view",
      "type": "function"
    },
    {
      "inputs": [
        {
          "internalType": "address",
          "name": "_account",
          "type": "address"
        }
      ],
      "name": "isHuman",
      "outputs": [
        {
          "internalType": "bool",
          "name": "",
          "type": "bool"
        }
      ],
      "stateMutability": "view",
      "type": "function"
    },
    {
      "inputs": [],
      "name": "proofOfHumanity",
      "outputs": [
        {
          "internalType": "contract IProofOfHumanity",
          "name": "",
          "type": "address"
        }
      ],
      "stateMutability": "view",
      "type": "function"
    },
    {
      "inputs": [
        {
          "internalType": "address",
          "name": "_owner",
          "type": "address"
        },
        {
          "internalType": "bytes20",
          "name": "_humanityId",
          "type": "bytes20"
        },
        {
          "internalType": "uint40",
          "name": "_expirationTime",
          "type": "uint40"
        },
        {
          "internalType": "bytes32",
          "name": "_transferHash",
          "type": "bytes32"
        }
      ],
      "name": "receiveTransfer",
      "outputs": [],
      "stateMutability": "nonpayable",
      "type": "function"
    },
    {
      "inputs": [
        {
          "internalType": "address",
          "name": "_owner",
          "type": "address"
        },
        {
          "internalType": "bytes20",
          "name": "_humanityId",
          "type": "bytes20"
        },
        {
          "internalType": "uint40",
          "name": "_expirationTime",
          "type": "uint40"
        },
        {
          "internalType": "bool",
          "name": "_isActive",
          "type": "bool"
        }
      ],
      "name": "receiveUpdate",
      "outputs": [],
      "stateMutability": "nonpayable",
      "type": "function"
    },
    {
      "inputs": [
        {
          "internalType": "bytes32",
          "name": "",
          "type": "bytes32"
        }
      ],
      "name": "receivedTransferHashes",
      "outputs": [
        {
          "internalType": "bool",
          "name": "",
          "type": "bool"
        }
      ],
      "stateMutability": "view",
      "type": "function"
    },
    {
      "inputs": [
        {
          "internalType": "address",
          "name": "_bridgeGateway",
          "type": "address"
        }
      ],
      "name": "removeBridgeGateway",
      "outputs": [],
      "stateMutability": "nonpayable",
      "type": "function"
    },
    {
      "inputs": [
        {
          "internalType": "uint256",
          "name": "_transferCooldown",
          "type": "uint256"
        }
      ],
      "name": "setTransferCooldown",
      "outputs": [],
      "stateMutability": "nonpayable",
      "type": "function"
    },
    {
      "inputs": [],
      "name": "transferCooldown",
      "outputs": [
        {
          "internalType": "uint256",
          "name": "",
          "type": "uint256"
        }
      ],
      "stateMutability": "view",
      "type": "function"
    },
    {
      "inputs": [
        {
          "internalType": "address",
          "name": "_bridgeGateway",
          "type": "address"
        }
      ],
      "name": "transferHumanity",
      "outputs": [],
      "stateMutability": "nonpayable",
      "type": "function"
    },
    {
      "inputs": [
        {
          "internalType": "bytes20",
          "name": "",
          "type": "bytes20"
        }
      ],
      "name": "transfers",
      "outputs": [
        {
          "internalType": "bytes20",
          "name": "humanityId",
          "type": "bytes20"
        },
        {
          "internalType": "uint40",
          "name": "humanityExpirationTime",
          "type": "uint40"
        },
        {
          "internalType": "bytes32",
          "name": "transferHash",
          "type": "bytes32"
        },
        {
          "internalType": "address",
          "name": "foreignProxy",
          "type": "address"
        }
      ],
      "stateMutability": "view",
      "type": "function"
    },
    {
      "inputs": [
        {
          "internalType": "address",
          "name": "_bridgeGateway",
          "type": "address"
        },
        {
          "internalType": "bytes20",
          "name": "_humanityId",
          "type": "bytes20"
        }
      ],
      "name": "updateHumanity",
      "outputs": [],
      "stateMutability": "nonpayable",
      "type": "function"
    }
  ],
  "bytecode": "0x6080806040523461001657611906908161001c8239f35b600080fdfe6040608081526004908136101561001557600080fd5b600091823560e01c90816309b1f9fc1461146f5781630c340a2414611446578163158ef93e146114245781631a355acb146112ef57816320437f171461103657816330dc901614610fc757816346b4570114610e745783826361667ce814610a695750816361a1201d146109f657816368f16293146109d75781636dbe2045146109855781637883018b1461095f578163797ed79a146109325781637d6a1d4a146109045781638bbb09e71461056f57816396ab02181461042e578163cd6dc68714610395578163d96058671461036d578163dce7953814610327578163e274f78f146101c157508063e4c0aaf4146101485763f72c436f1461011757600080fd5b346101445760206003193601126101445760209061013b6101366114e2565b61178a565b90519015158152f35b5080fd5b82346101be5760206003193601126101be576101626114e2565b6001600160a01b03825460081c163303610144577fffffffffffffffffffffff0000000000000000000000000000000000000000ff74ffffffffffffffffffffffffffffffffffffffff006000549260081b1691161760005580f35b80fd5b839150346101445760209283600319360112610323576101df6114e2565b916001600160a01b039385856024816001541696865197889384927fe274f78f0000000000000000000000000000000000000000000000000000000084521680978301525afa9384156103175781946102dc575b5083946bffffffffffffffffffffffff1980951615610257575b5050505191168152f35b90918095508252603886528282205460601b9484861683526037875283832084519061028282611544565b5492831690818152606060ff64ffffffffff95868160a01c1696878d8601528160c81c168985015260f01c16151591015214908115916102d2575b506102ca575b808061024d565b9250846102c3565b90504211866102bd565b9093508581813d8311610310575b6102f481836115bf565b8101031261030c576103059061165d565b9286610233565b8380fd5b503d6102ea565b508251903d90823e3d90fd5b8280fd5b8284346101be5760206003193601126101be5760ff826001600160a01b03928361034f6114e2565b168152603660205220548351928116835260a01c1615156020820152f35b5050346101445781600319360112610144576020906001600160a01b03600154169051908152f35b505034610144576003193601126101be576103ae6114e2565b81549060ff82166103235760016001600160a01b03927fffffffffffffffffffffff00000000000000000000000000000000000000000074ffffffffffffffffffffffffffffffffffffffff003360081b169116171783551673ffffffffffffffffffffffffffffffffffffffff19600154161760015560243560025580f35b9050346103235781600319360112610323576104486114e2565b91602435916001600160a01b039384841680940361056a5784865460081c16330361056657841693841561056657848652603660205260ff8387205460a01c16610566578251918383019083821067ffffffffffffffff83111761053857509183917f597f52ace28bac45af81a392f5ef9bf9a349b8295ae85a3b422de8e3f0150ce29593602095528382528482019060018252878952603686528389209251167fffffffffffffffffffffff00000000000000000000000000000000000000000074ff000000000000000000000000000000000000000084549351151560a01b1692161717905551908152a280f35b6041907f4e487b71000000000000000000000000000000000000000000000000000000006000525260246000fd5b8580fd5b600080fd5b9050346103235781600319360112610323576105896114e2565b610591611514565b916001600160a01b038092168086526020946036865260ff8188205460a01c1615610900578360015416956bffffffffffffffffffffffff198251967f68c3d8ff0000000000000000000000000000000000000000000000000000000088521694858588015260c0876024818b5afa9081156108f65789978a92610874575b50826024969798998551978880927f7883018b0000000000000000000000000000000000000000000000000000000082528c8c8301525afa95861561086a578a9661082f575b50878a5260378352838a20805460ff8160f01c168015610828575b156107cc579164ffffffffff917e010000000000000000000000000000000000000000000000000000000000007fff00ffffffffffffffffffffffffffffffffffffffffffffffffffffffffffff8e9695161790558551927f46b45701000000000000000000000000000000000000000000000000000000008685015216998a602484015289604484015216958660648301521515968760848301526084825261071a826115a3565b853b1561032357610758918391865193849283927f82646a580000000000000000000000000000000000000000000000000000000084528301611615565b038183895af180156107c2576107a2575b5050907f13b470212b2eb009e4713ba08f1cd1b38cbee1f2697f4d860ae683649cfe5da49460609493928251948552840152820152a380f35b6107b090959493929561158f565b6107be579091928738610769565b8780fd5b84513d84823e3d90fd5b606489868851917f08c379a0000000000000000000000000000000000000000000000000000000008352820152601b60248201527f4d757374207570646174652066726f6d20686f6d6520636861696e00000000006044820152fd5b5087610671565b9095508281813d8311610863575b61084781836115bf565b8101031261085f57610858906115e2565b9438610656565b8980fd5b503d61083d565b84513d8c823e3d90fd5b9891509495965060c0883d82116108ee575b8161089360c093836115bf565b810103126108ea576108a4886115e2565b506108b08289016115e2565b508288015165ffffffffffff8116036108ea57602494826108df60806108d860608d016115ef565b9b01611601565b929998979650610610565b8880fd5b3d9150610886565b83513d8b823e3d90fd5b8680fd5b839034610144576020600319360112610144576001600160a01b03825460081c163303610144573560025580f35b905034610323576020600319360112610323578160209360ff923581526035855220541690519015158152f35b5050346101445760206003193601126101445760209061013b6109806114f8565b611677565b83346101be5760206003193601126101be5761099f6114e2565b6001600160a01b039081835460081c163303610323571673ffffffffffffffffffffffffffffffffffffffff19600154161760015580f35b5050346101445781600319360112610144576020906002549051908152f35b5050346101445760206003193601126101445790816080926bffffffffffffffffffffffff199283610a266114f8565b16815260396020522080549164ffffffffff6001600160a01b036002600185015494015416938251958160601b16865260a01c1660208501528301526060820152f35b915091346101445760209081600319360112610323576001600160a01b039182610a916114e2565b16908185526036815260ff8386205460a01c1615610e705782846001541660248251809881937f8349143e000000000000000000000000000000000000000000000000000000008352338c8401525af1958615610e665787958897610e22575b506bffffffffffffffffffffffff1980871696878a5260378452858a209164ffffffffff9283815460c81c166002548101809111610df657421115610d9a5780547fffffffffffffff0000000000ffffffffffffffffffffffffffffffffffffffff1660a08c901b78ffffffffff0000000000000000000000000000000000000000161781558b9392919080547fff00ffffffffffffffffffff00000000000000000000000000000000000000007fff00ffffffffffffffffffffffffffffffffffffffffffffffffffffffffffff331691161790553384526038865260028885209260601c9973ffffffffffffffffffffffffffffffffffffffff19938b858254161790558b8652603988528b8a8720938a885260368a528b882054908c51918b83019384524260348401523060601b605484015260601b166068820152605c8152610c3d81611544565b5190206001840181905583547fffffffffffffff0000000000ffffffffffffffffffffffffffffffffffffffff908616909c179b909b1660a08e901b78ffffffffff0000000000000000000000000000000000000000161783558886526036885289862054169101918254161790558551987f20437f1700000000000000000000000000000000000000000000000000000000858b01523360248b01528860448b0152169788606482015286608482015260848152610cfb816115a3565b843b1561014457610d3792865193849283927f82646a580000000000000000000000000000000000000000000000000000000084528301611615565b038183875af18015610d9057610d7d575b5082519586528501528301527fb411252553367ea80344672f91f408a3aa8458de6485f15515cf2dcce278cdc660603393a380f35b610d899097919761158f565b9538610d48565b84513d8a823e3d90fd5b606485878a51917f08c379a0000000000000000000000000000000000000000000000000000000008352820152601260248201527f43616e2774207472616e736665722079657400000000000000000000000000006044820152fd5b60248d6011887f4e487b7100000000000000000000000000000000000000000000000000000000835252fd5b84809298508197503d8311610e5f575b610e3c81836115bf565b8101031261090057610e5881610e518761165d565b96016115ef565b9538610af1565b503d610e32565b83513d89823e3d90fd5b8480fd5b50503461014457608060031936011261014457610e8f6114e2565b610e97611514565b90610ea0611530565b926064358015159283820361090057338752603660205260ff8388205460a01c1615610900577f0ca29677f1a2147e438c75d003f5cf99cbf62b9e444713ab33fba9c8dbf53387936bffffffffffffffffffffffff198616958689526037602052848920906001600160a01b0394858354168b526038602052868b209073ffffffffffffffffffffffffffffffffffffffff1991828154169055600014610fbc5785851691828c52878c209060601c828254161790558254161781555b80547fff00ffffffffff0000000000ffffffffffffffffffffffffffffffffffffffff1678ffffffffff000000000000000000000000000000000000000060a08a901b16179055835164ffffffffff909716875260208701521693a380f35b825416825550610f5d565b5050346101445760206003193601126101445760ff816080936bffffffffffffffffffffffff19610ff66114f8565b168152603760205220548251926001600160a01b038216845264ffffffffff808360a01c1660208601528260c81c169084015260f01c1615156060820152f35b905034610323576080600319360112610323576110516114e2565b9161105a611514565b90611063611530565b60643533875260206036815260ff8489205460a01c16156107be578188526035815260ff84892054166107be576001600160a01b03888160015416948287519a7f9c41ddfa000000000000000000000000000000000000000000000000000000008c526bffffffffffffffffffffffff198a16809b8d015216998a602482015284816064818664ffffffffff87169b8c60448401525af19081156112e557908b91849161128a575b507f57b26a7ba870b6cf9d996f2f29ee4b46cc55438f1afa9a54f8c82e75afe76e9b998b85526037875289852095865416855260388752898086209273ffffffffffffffffffffffffffffffffffffffff19938481541690556111ae575b5050505050839150526035815283882060017fffffffffffffffffffffffffffffffffffffffffffffffffffffffffffffff008254161790558351928352820152a380f35b85846112129752209060601c8282541617905584541617835582907fffffffffffffff0000000000ffffffffffffffffffffffffffffffffffffffff78ffffffffff000000000000000000000000000000000000000083549260a01b169116179055565b80547fff000000000000ffffffffffffffffffffffffffffffffffffffffffffffffff164260c81b7dffffffffff0000000000000000000000000000000000000000000000000016177e0100000000000000000000000000000000000000000000000000000000000017905538888189818089611169565b809250868092503d83116112de575b6112a381836115bf565b81010312610323577f57b26a7ba870b6cf9d996f2f29ee4b46cc55438f1afa9a54f8c82e75afe76e9b986112d78c926115e2565b909961110b565b503d611299565b88513d85823e3d90fd5b8391503461014457602092836003193601126103235761130d6114f8565b926001600160a01b0392856bffffffffffffffffffffffff196024866001541697865198899384927f1a355acb0000000000000000000000000000000000000000000000000000000084521680968301525afa94851561141a5782956113e0575b5090829184861615611384575050505191168152f35b8152603786522081519061139782611544565b5483811691828152606060ff64ffffffffff93848160a01c1694858b8601528160c81c168785015260f01c1615159101524211156113d8575b80829161024d565b9250846113d0565b9094508581813d8311611413575b6113f881836115bf565b81010312610144579061140b8392611601565b94909161136e565b503d6113ee565b83513d84823e3d90fd5b50503461014457816003193601126101445760ff602092541690519015158152f35b5050346101445781600319360112610144576001600160a01b036020925460081c169051908152f35b505034610144576020600319360112610144578161148b6114e2565b6001600160a01b039081835460081c1633036103235716918282526036602052812060ff815460a01c161561014457557f6ad07cb5676ab639fa3821550f0ec4379900d542e2d8bd8f0f8158d8bd352da28280a280f35b600435906001600160a01b038216820361056a57565b600435906bffffffffffffffffffffffff198216820361056a57565b602435906bffffffffffffffffffffffff198216820361056a57565b6044359064ffffffffff8216820361056a57565b6080810190811067ffffffffffffffff82111761156057604052565b7f4e487b7100000000000000000000000000000000000000000000000000000000600052604160045260246000fd5b67ffffffffffffffff811161156057604052565b60c0810190811067ffffffffffffffff82111761156057604052565b90601f601f19910116810190811067ffffffffffffffff82111761156057604052565b5190811515820361056a57565b519064ffffffffff8216820361056a57565b51906001600160a01b038216820361056a57565b60208082528251818301819052939260005b85811061164957505050601f19601f8460006040809697860101520116010190565b818101830151848201604001528201611627565b51906bffffffffffffffffffffffff198216820361056a57565b6bffffffffffffffffffffffff19906001600160a01b03908160015416906040519384917f7883018b000000000000000000000000000000000000000000000000000000008352169182600483015281602460209687935afa90811561177e57600091611749575b5061174157600052603782526040600020606060ff6040519261170184611544565b549384169384845264ffffffffff808260a01c1680978601528160c81c16604085015260f01c16151591015215159081611739575090565b905042111590565b505050600190565b908482813d8311611777575b61175f81836115bf565b810103126101be5750611771906115e2565b386116df565b503d611755565b6040513d6000823e3d90fd5b6001600160a01b03809181600154169060409081519384917ff72c436f000000000000000000000000000000000000000000000000000000008352169283600483015281602460209687935afa9081156118c557600091611890575b506118875781600052603883526bffffffffffffffffffffffff19816000205460601b16806000526037845260ff826000209583519661182588611544565b549081169384885264ffffffffff808360a01c1680988a01528260c81c169088015260f01c161594606086159101528461187d575b5083611873575b50508161186c575090565b9050421090565b1491503880611861565b151593503861185a565b50505050600190565b908482813d83116118be575b6118a681836115bf565b810103126101be57506118b8906115e2565b386117e6565b503d61189c565b82513d6000823e3d90fdfea2646970667358221220f7b5c369a969015243a12f079536c971f397a424b6c9d3ece2301d7b78d44e8f64736f6c63430008140033",
  "linkReferences": {},
  "deployedLinkReferences": {}
}