{
  "_format": "hh-sol-artifact-1",
  "contractName": "ProofOfHumanity",
  "sourceName": "contracts/ProofOfHumanity.sol",
  "abi": [
    {
      "anonymous": false,
      "inputs": [
        {
          "indexed": false,
          "internalType": "contract IArbitrator",
          "name": "arbitrator",
          "type": "address"
        },
        {
          "indexed": false,
          "internalType": "uint256",
          "name": "disputeId",
          "type": "uint256"
        }
      ],
      "name": "AppealCreated",
      "type": "event"
    },
    {
      "anonymous": false,
      "inputs": [
        {
          "indexed": false,
          "internalType": "contract IArbitrator",
          "name": "arbitrator",
          "type": "address"
        },
        {
          "indexed": false,
          "internalType": "bytes",
          "name": "arbitratorExtraData",
          "type": "bytes"
        }
      ],
      "name": "ArbitratorChanged",
      "type": "event"
    },
    {
      "anonymous": false,
      "inputs": [
        {
          "indexed": false,
          "internalType": "bytes20",
          "name": "humanityId",
          "type": "bytes20"
        },
        {
          "indexed": false,
          "internalType": "uint256",
          "name": "requestId",
          "type": "uint256"
        },
        {
          "indexed": false,
          "internalType": "uint256",
          "name": "challengeId",
          "type": "uint256"
        }
      ],
      "name": "ChallengePeriodRestart",
      "type": "event"
    },
    {
      "anonymous": false,
      "inputs": [
        {
          "indexed": true,
          "internalType": "address",
          "name": "requester",
          "type": "address"
        },
        {
          "indexed": true,
          "internalType": "bytes20",
          "name": "humanityId",
          "type": "bytes20"
        },
        {
          "indexed": false,
          "internalType": "uint256",
          "name": "requestId",
          "type": "uint256"
        },
        {
          "indexed": false,
          "internalType": "string",
          "name": "name",
          "type": "string"
        }
      ],
      "name": "ClaimRequest",
      "type": "event"
    },
    {
      "anonymous": false,
      "inputs": [
        {
          "indexed": false,
          "internalType": "bytes20",
          "name": "humanityId",
          "type": "bytes20"
        },
        {
          "indexed": false,
          "internalType": "uint256",
          "name": "requestId",
          "type": "uint256"
        },
        {
          "indexed": false,
          "internalType": "uint256",
          "name": "challengeId",
          "type": "uint256"
        },
        {
          "indexed": false,
          "internalType": "uint256",
          "name": "round",
          "type": "uint256"
        },
        {
          "indexed": false,
          "internalType": "address",
          "name": "contributor",
          "type": "address"
        },
        {
          "indexed": false,
          "internalType": "uint256",
          "name": "contribution",
          "type": "uint256"
        },
        {
          "indexed": false,
          "internalType": "enum ProofOfHumanity.Party",
          "name": "side",
          "type": "uint8"
        }
      ],
      "name": "Contribution",
      "type": "event"
    },
    {
      "anonymous": false,
      "inputs": [
        {
          "indexed": false,
          "internalType": "address",
          "name": "crossChainProofOfHumanity",
          "type": "address"
        }
      ],
      "name": "CrossChainProxyChanged",
      "type": "event"
    },
    {
      "anonymous": false,
      "inputs": [
        {
          "indexed": true,
          "internalType": "contract IArbitrator",
          "name": "_arbitrator",
          "type": "address"
        },
        {
          "indexed": true,
          "internalType": "uint256",
          "name": "_disputeID",
          "type": "uint256"
        },
        {
          "indexed": false,
          "internalType": "uint256",
          "name": "_metaEvidenceID",
          "type": "uint256"
        },
        {
          "indexed": false,
          "internalType": "uint256",
          "name": "_evidenceGroupID",
          "type": "uint256"
        }
      ],
      "name": "Dispute",
      "type": "event"
    },
    {
      "anonymous": false,
      "inputs": [
        {
          "indexed": false,
          "internalType": "uint40",
          "name": "humanityLifespan",
          "type": "uint40"
        },
        {
          "indexed": false,
          "internalType": "uint40",
          "name": "renewalPeriodDuration",
          "type": "uint40"
        },
        {
          "indexed": false,
          "internalType": "uint40",
          "name": "challengePeriodDuration",
          "type": "uint40"
        },
        {
          "indexed": false,
          "internalType": "uint40",
          "name": "failedRevocationCooldown",
          "type": "uint40"
        }
      ],
      "name": "DurationsChanged",
      "type": "event"
    },
    {
      "anonymous": false,
      "inputs": [
        {
          "indexed": true,
          "internalType": "contract IArbitrator",
          "name": "_arbitrator",
          "type": "address"
        },
        {
          "indexed": true,
          "internalType": "uint256",
          "name": "_evidenceGroupID",
          "type": "uint256"
        },
        {
          "indexed": true,
          "internalType": "address",
          "name": "_party",
          "type": "address"
        },
        {
          "indexed": false,
          "internalType": "string",
          "name": "_evidence",
          "type": "string"
        }
      ],
      "name": "Evidence",
      "type": "event"
    },
    {
      "anonymous": false,
      "inputs": [
        {
          "indexed": false,
          "internalType": "bytes20",
          "name": "humanityId",
          "type": "bytes20"
        },
        {
          "indexed": false,
          "internalType": "uint256",
          "name": "requestId",
          "type": "uint256"
        },
        {
          "indexed": false,
          "internalType": "uint256",
          "name": "challengeId",
          "type": "uint256"
        },
        {
          "indexed": false,
          "internalType": "uint256",
          "name": "round",
          "type": "uint256"
        },
        {
          "indexed": false,
          "internalType": "address",
          "name": "beneficiary",
          "type": "address"
        }
      ],
      "name": "FeesAndRewardsWithdrawn",
      "type": "event"
    },
    {
      "anonymous": false,
      "inputs": [
        {
          "indexed": false,
          "internalType": "address",
          "name": "governor",
          "type": "address"
        }
      ],
      "name": "GovernorChanged",
      "type": "event"
    },
    {
      "anonymous": false,
      "inputs": [
        {
          "indexed": false,
          "internalType": "bytes20",
          "name": "humanityId",
          "type": "bytes20"
        },
        {
          "indexed": false,
          "internalType": "uint256",
          "name": "requestId",
          "type": "uint256"
        }
      ],
      "name": "HumanityClaimed",
      "type": "event"
    },
    {
      "anonymous": false,
      "inputs": [
        {
          "indexed": true,
          "internalType": "bytes20",
          "name": "humanityId",
          "type": "bytes20"
        }
      ],
      "name": "HumanityDischargedDirectly",
      "type": "event"
    },
    {
      "anonymous": false,
      "inputs": [
        {
          "indexed": true,
          "internalType": "bytes20",
          "name": "humanityId",
          "type": "bytes20"
        },
        {
          "indexed": true,
          "internalType": "address",
          "name": "owner",
          "type": "address"
        },
        {
          "indexed": false,
          "internalType": "uint40",
          "name": "expirationTime",
          "type": "uint40"
        }
      ],
      "name": "HumanityGrantedDirectly",
      "type": "event"
    },
    {
      "anonymous": false,
      "inputs": [
        {
          "indexed": false,
          "internalType": "bytes20",
          "name": "humanityId",
          "type": "bytes20"
        },
        {
          "indexed": false,
          "internalType": "uint256",
          "name": "requestId",
          "type": "uint256"
        }
      ],
      "name": "HumanityRevoked",
      "type": "event"
    },
    {
      "anonymous": false,
      "inputs": [],
      "name": "Initialized",
      "type": "event"
    },
    {
      "anonymous": false,
      "inputs": [
        {
          "indexed": true,
          "internalType": "uint256",
          "name": "_metaEvidenceID",
          "type": "uint256"
        },
        {
          "indexed": false,
          "internalType": "string",
          "name": "_evidence",
          "type": "string"
        }
      ],
      "name": "MetaEvidence",
      "type": "event"
    },
    {
      "anonymous": false,
      "inputs": [
        {
          "indexed": true,
          "internalType": "address",
          "name": "requester",
          "type": "address"
        },
        {
          "indexed": true,
          "internalType": "bytes20",
          "name": "humanityId",
          "type": "bytes20"
        },
        {
          "indexed": false,
          "internalType": "uint256",
          "name": "requestId",
          "type": "uint256"
        }
      ],
      "name": "RenewalRequest",
      "type": "event"
    },
    {
      "anonymous": false,
      "inputs": [
        {
          "indexed": false,
          "internalType": "uint256",
          "name": "requestBaseDeposit",
          "type": "uint256"
        }
      ],
      "name": "RequestBaseDepositChanged",
      "type": "event"
    },
    {
      "anonymous": false,
      "inputs": [
        {
          "indexed": false,
          "internalType": "bytes20",
          "name": "humanityId",
          "type": "bytes20"
        },
        {
          "indexed": false,
          "internalType": "uint256",
          "name": "requestId",
          "type": "uint256"
        },
        {
          "indexed": false,
          "internalType": "uint256",
          "name": "challengeId",
          "type": "uint256"
        },
        {
          "indexed": false,
          "internalType": "enum ProofOfHumanity.Reason",
          "name": "reason",
          "type": "uint8"
        },
        {
          "indexed": false,
          "internalType": "uint256",
          "name": "disputeId",
          "type": "uint256"
        }
      ],
      "name": "RequestChallenged",
      "type": "event"
    },
    {
      "anonymous": false,
      "inputs": [
        {
          "indexed": false,
          "internalType": "bytes20",
          "name": "humanityId",
          "type": "bytes20"
        },
        {
          "indexed": false,
          "internalType": "uint256",
          "name": "requestId",
          "type": "uint256"
        }
      ],
      "name": "RequestWithdrawn",
      "type": "event"
    },
    {
      "anonymous": false,
      "inputs": [
        {
          "indexed": false,
          "internalType": "uint32",
          "name": "requiredNumberOfVouches",
          "type": "uint32"
        }
      ],
      "name": "RequiredNumberOfVouchesChanged",
      "type": "event"
    },
    {
      "anonymous": false,
      "inputs": [
        {
          "indexed": true,
          "internalType": "address",
          "name": "requester",
          "type": "address"
        },
        {
          "indexed": true,
          "internalType": "bytes20",
          "name": "humanityId",
          "type": "bytes20"
        },
        {
          "indexed": false,
          "internalType": "uint256",
          "name": "requestId",
          "type": "uint256"
        }
      ],
      "name": "RevocationRequest",
      "type": "event"
    },
    {
      "anonymous": false,
      "inputs": [
        {
          "indexed": true,
          "internalType": "contract IArbitrator",
          "name": "_arbitrator",
          "type": "address"
        },
        {
          "indexed": true,
          "internalType": "uint256",
          "name": "_disputeID",
          "type": "uint256"
        },
        {
          "indexed": false,
          "internalType": "uint256",
          "name": "_ruling",
          "type": "uint256"
        }
      ],
      "name": "Ruling",
      "type": "event"
    },
    {
      "anonymous": false,
      "inputs": [
        {
          "indexed": false,
          "internalType": "uint256",
          "name": "sharedMultiplier",
          "type": "uint256"
        },
        {
          "indexed": false,
          "internalType": "uint256",
          "name": "winnerMultiplier",
          "type": "uint256"
        },
        {
          "indexed": false,
          "internalType": "uint256",
          "name": "loserMultiplier",
          "type": "uint256"
        }
      ],
      "name": "StakeMultipliersChanged",
      "type": "event"
    },
    {
      "anonymous": false,
      "inputs": [
        {
          "indexed": false,
          "internalType": "address",
          "name": "claimer",
          "type": "address"
        }
      ],
      "name": "StateAdvanced",
      "type": "event"
    },
    {
      "anonymous": false,
      "inputs": [
        {
          "indexed": true,
          "internalType": "address",
          "name": "voucherAccount",
          "type": "address"
        },
        {
          "indexed": true,
          "internalType": "address",
          "name": "claimer",
          "type": "address"
        },
        {
          "indexed": false,
          "internalType": "bytes20",
          "name": "humanityId",
          "type": "bytes20"
        }
      ],
      "name": "VouchAdded",
      "type": "event"
    },
    {
      "anonymous": false,
      "inputs": [
        {
          "indexed": true,
          "internalType": "bytes20",
          "name": "voucherHumanityId",
          "type": "bytes20"
        },
        {
          "indexed": true,
          "internalType": "bytes20",
          "name": "vouchedHumanityId",
          "type": "bytes20"
        },
        {
          "indexed": false,
          "internalType": "uint256",
          "name": "requestId",
          "type": "uint256"
        }
      ],
      "name": "VouchRegistered",
      "type": "event"
    },
    {
      "anonymous": false,
      "inputs": [
        {
          "indexed": true,
          "internalType": "address",
          "name": "voucherAccount",
          "type": "address"
        },
        {
          "indexed": true,
          "internalType": "address",
          "name": "claimer",
          "type": "address"
        },
        {
          "indexed": false,
          "internalType": "bytes20",
          "name": "humanityId",
          "type": "bytes20"
        }
      ],
      "name": "VouchRemoved",
      "type": "event"
    },
    {
      "anonymous": false,
      "inputs": [
        {
          "indexed": false,
          "internalType": "bytes20",
          "name": "humanityId",
          "type": "bytes20"
        },
        {
          "indexed": false,
          "internalType": "uint256",
          "name": "requestId",
          "type": "uint256"
        },
        {
          "indexed": false,
          "internalType": "uint256",
          "name": "endIndex",
          "type": "uint256"
        }
      ],
      "name": "VouchesProcessed",
      "type": "event"
    },
    {
      "inputs": [
        {
          "internalType": "address",
          "name": "_account",
          "type": "address"
        },
        {
          "internalType": "bytes20",
          "name": "_humanityId",
          "type": "bytes20"
        }
      ],
      "name": "addVouch",
      "outputs": [],
      "stateMutability": "nonpayable",
      "type": "function"
    },
    {
      "inputs": [
        {
          "internalType": "address",
          "name": "_claimer",
          "type": "address"
        },
        {
          "internalType": "address[]",
          "name": "_vouches",
          "type": "address[]"
        },
        {
          "components": [
            {
              "internalType": "uint40",
              "name": "expirationTime",
              "type": "uint40"
            },
            {
              "internalType": "uint8",
              "name": "v",
              "type": "uint8"
            },
            {
              "internalType": "bytes32",
              "name": "r",
              "type": "bytes32"
            },
            {
              "internalType": "bytes32",
              "name": "s",
              "type": "bytes32"
            }
          ],
          "internalType": "struct ProofOfHumanity.SignatureVouch[]",
          "name": "_signatureVouches",
          "type": "tuple[]"
        }
      ],
      "name": "advanceState",
      "outputs": [],
      "stateMutability": "nonpayable",
      "type": "function"
    },
    {
      "inputs": [
        {
          "internalType": "uint256",
          "name": "",
          "type": "uint256"
        }
      ],
      "name": "arbitratorDataHistory",
      "outputs": [
        {
          "internalType": "uint96",
          "name": "metaEvidenceUpdates",
          "type": "uint96"
        },
        {
          "internalType": "contract IArbitrator",
          "name": "arbitrator",
          "type": "address"
        },
        {
          "internalType": "bytes",
          "name": "arbitratorExtraData",
          "type": "bytes"
        }
      ],
      "stateMutability": "view",
      "type": "function"
    },
    {
      "inputs": [
        {
          "internalType": "bytes20",
          "name": "_humanityId",
          "type": "bytes20"
        }
      ],
      "name": "boundTo",
      "outputs": [
        {
          "internalType": "address",
          "name": "",
          "type": "address"
        }
      ],
      "stateMutability": "view",
      "type": "function"
    },
    {
      "inputs": [
        {
          "internalType": "address",
          "name": "_account",
          "type": "address"
        }
      ],
      "name": "ccDischargeHumanity",
      "outputs": [
        {
          "internalType": "bytes20",
          "name": "humanityId",
          "type": "bytes20"
        },
        {
          "internalType": "uint40",
          "name": "expirationTime",
          "type": "uint40"
        }
      ],
      "stateMutability": "nonpayable",
      "type": "function"
    },
    {
      "inputs": [
        {
          "internalType": "bytes20",
          "name": "_humanityId",
          "type": "bytes20"
        },
        {
          "internalType": "address",
          "name": "_account",
          "type": "address"
        },
        {
          "internalType": "uint40",
          "name": "_expirationTime",
          "type": "uint40"
        }
      ],
      "name": "ccGrantHumanity",
      "outputs": [
        {
          "internalType": "bool",
          "name": "success",
          "type": "bool"
        }
      ],
      "stateMutability": "nonpayable",
      "type": "function"
    },
    {
      "inputs": [],
      "name": "challengePeriodDuration",
      "outputs": [
        {
          "internalType": "uint40",
          "name": "",
          "type": "uint40"
        }
      ],
      "stateMutability": "view",
      "type": "function"
    },
    {
      "inputs": [
        {
          "internalType": "bytes20",
          "name": "_humanityId",
          "type": "bytes20"
        },
        {
          "internalType": "uint256",
          "name": "_requestId",
          "type": "uint256"
        },
        {
          "internalType": "enum ProofOfHumanity.Reason",
          "name": "_reason",
          "type": "uint8"
        },
        {
          "internalType": "string",
          "name": "_evidence",
          "type": "string"
        }
      ],
      "name": "challengeRequest",
      "outputs": [],
      "stateMutability": "payable",
      "type": "function"
    },
    {
      "inputs": [
        {
          "internalType": "contract IArbitrator",
          "name": "_arbitrator",
          "type": "address"
        },
        {
          "internalType": "bytes",
          "name": "_arbitratorExtraData",
          "type": "bytes"
        }
      ],
      "name": "changeArbitrator",
      "outputs": [],
      "stateMutability": "nonpayable",
      "type": "function"
    },
    {
      "inputs": [
        {
          "internalType": "address",
          "name": "_crossChainProofOfHumanity",
          "type": "address"
        }
      ],
      "name": "changeCrossChainProofOfHumanity",
      "outputs": [],
      "stateMutability": "nonpayable",
      "type": "function"
    },
    {
      "inputs": [
        {
          "internalType": "uint40",
          "name": "_humanityLifespan",
          "type": "uint40"
        },
        {
          "internalType": "uint40",
          "name": "_renewalPeriodDuration",
          "type": "uint40"
        },
        {
          "internalType": "uint40",
          "name": "_challengePeriodDuration",
          "type": "uint40"
        },
        {
          "internalType": "uint40",
          "name": "_failedRevocationCooldown",
          "type": "uint40"
        }
      ],
      "name": "changeDurations",
      "outputs": [],
      "stateMutability": "nonpayable",
      "type": "function"
    },
    {
      "inputs": [
        {
          "internalType": "address",
          "name": "_governor",
          "type": "address"
        }
      ],
      "name": "changeGovernor",
      "outputs": [],
      "stateMutability": "nonpayable",
      "type": "function"
    },
    {
      "inputs": [
        {
          "internalType": "string",
          "name": "_registrationMetaEvidence",
          "type": "string"
        },
        {
          "internalType": "string",
          "name": "_clearingMetaEvidence",
          "type": "string"
        }
      ],
      "name": "changeMetaEvidence",
      "outputs": [],
      "stateMutability": "nonpayable",
      "type": "function"
    },
    {
      "inputs": [
        {
          "internalType": "uint256",
          "name": "_requestBaseDeposit",
          "type": "uint256"
        }
      ],
      "name": "changeRequestBaseDeposit",
      "outputs": [],
      "stateMutability": "nonpayable",
      "type": "function"
    },
    {
      "inputs": [
        {
          "internalType": "uint32",
          "name": "_requiredNumberOfVouches",
          "type": "uint32"
        }
      ],
      "name": "changeRequiredNumberOfVouches",
      "outputs": [],
      "stateMutability": "nonpayable",
      "type": "function"
    },
    {
      "inputs": [
        {
          "internalType": "uint256",
          "name": "_sharedStakeMultiplier",
          "type": "uint256"
        },
        {
          "internalType": "uint256",
          "name": "_winnerStakeMultiplier",
          "type": "uint256"
        },
        {
          "internalType": "uint256",
          "name": "_loserStakeMultiplier",
          "type": "uint256"
        }
      ],
      "name": "changeStakeMultipliers",
      "outputs": [],
      "stateMutability": "nonpayable",
      "type": "function"
    },
    {
      "inputs": [
        {
          "internalType": "bytes20",
          "name": "_humanityId",
          "type": "bytes20"
        },
        {
          "internalType": "string",
          "name": "_evidence",
          "type": "string"
        },
        {
          "internalType": "string",
          "name": "_name",
          "type": "string"
        }
      ],
      "name": "claimHumanity",
      "outputs": [],
      "stateMutability": "payable",
      "type": "function"
    },
    {
      "inputs": [],
      "name": "crossChainProofOfHumanity",
      "outputs": [
        {
          "internalType": "address",
          "name": "",
          "type": "address"
        }
      ],
      "stateMutability": "view",
      "type": "function"
    },
    {
      "inputs": [
        {
          "internalType": "address",
          "name": "",
          "type": "address"
        },
        {
          "internalType": "uint256",
          "name": "",
          "type": "uint256"
        }
      ],
      "name": "disputeIdToData",
      "outputs": [
        {
          "internalType": "uint96",
          "name": "requestId",
          "type": "uint96"
        },
        {
          "internalType": "uint96",
          "name": "challengeId",
          "type": "uint96"
        },
        {
          "internalType": "bytes20",
          "name": "humanityId",
          "type": "bytes20"
        }
      ],
      "stateMutability": "view",
      "type": "function"
    },
    {
      "inputs": [
        {
          "internalType": "bytes20",
          "name": "_humanityId",
          "type": "bytes20"
        },
        {
          "internalType": "uint256",
          "name": "_requestId",
          "type": "uint256"
        }
      ],
      "name": "executeRequest",
      "outputs": [],
      "stateMutability": "nonpayable",
      "type": "function"
    },
    {
      "inputs": [],
      "name": "failedRevocationCooldown",
      "outputs": [
        {
          "internalType": "uint40",
          "name": "",
          "type": "uint40"
        }
      ],
      "stateMutability": "view",
      "type": "function"
    },
    {
      "inputs": [
        {
          "internalType": "address",
          "name": "_arbitrator",
          "type": "address"
        },
        {
          "internalType": "uint256",
          "name": "_disputeId",
          "type": "uint256"
        },
        {
          "internalType": "enum ProofOfHumanity.Party",
          "name": "_side",
          "type": "uint8"
        }
      ],
      "name": "fundAppeal",
      "outputs": [],
      "stateMutability": "payable",
      "type": "function"
    },
    {
      "inputs": [
        {
          "internalType": "bytes20",
          "name": "_humanityId",
          "type": "bytes20"
        },
        {
          "internalType": "uint256",
          "name": "_requestId",
          "type": "uint256"
        }
      ],
      "name": "fundRequest",
      "outputs": [],
      "stateMutability": "payable",
      "type": "function"
    },
    {
      "inputs": [],
      "name": "getArbitratorDataHistoryCount",
      "outputs": [
        {
          "internalType": "uint256",
          "name": "",
          "type": "uint256"
        }
      ],
      "stateMutability": "view",
      "type": "function"
    },
    {
      "inputs": [
        {
          "internalType": "bytes20",
          "name": "_humanityId",
          "type": "bytes20"
        },
        {
          "internalType": "uint256",
          "name": "_requestId",
          "type": "uint256"
        },
        {
          "internalType": "uint256",
          "name": "_challengeId",
          "type": "uint256"
        }
      ],
      "name": "getChallengeInfo",
      "outputs": [
        {
          "internalType": "uint16",
          "name": "lastRoundId",
          "type": "uint16"
        },
        {
          "internalType": "address",
          "name": "challenger",
          "type": "address"
        },
        {
          "internalType": "uint256",
          "name": "disputeId",
          "type": "uint256"
        },
        {
          "internalType": "enum ProofOfHumanity.Party",
          "name": "ruling",
          "type": "uint8"
        }
      ],
      "stateMutability": "view",
      "type": "function"
    },
    {
      "inputs": [
        {
          "internalType": "address",
          "name": "_claimer",
          "type": "address"
        }
      ],
      "name": "getClaimerRequestId",
      "outputs": [
        {
          "internalType": "uint256",
          "name": "",
          "type": "uint256"
        }
      ],
      "stateMutability": "view",
      "type": "function"
    },
    {
      "inputs": [
        {
          "internalType": "bytes20",
          "name": "_humanityId",
          "type": "bytes20"
        },
        {
          "internalType": "uint256",
          "name": "_requestId",
          "type": "uint256"
        },
        {
          "internalType": "uint256",
          "name": "_challengeId",
          "type": "uint256"
        },
        {
          "internalType": "uint256",
          "name": "_round",
          "type": "uint256"
        },
        {
          "internalType": "address",
          "name": "_contributor",
          "type": "address"
        }
      ],
      "name": "getContributions",
      "outputs": [
        {
          "internalType": "uint256",
          "name": "forRequester",
          "type": "uint256"
        },
        {
          "internalType": "uint256",
          "name": "forChallenger",
          "type": "uint256"
        }
      ],
      "stateMutability": "view",
      "type": "function"
    },
    {
      "inputs": [
        {
          "internalType": "bytes20",
          "name": "_humanityId",
          "type": "bytes20"
        }
      ],
      "name": "getHumanityInfo",
      "outputs": [
        {
          "internalType": "bool",
          "name": "vouching",
          "type": "bool"
        },
        {
          "internalType": "bool",
          "name": "pendingRevocation",
          "type": "bool"
        },
        {
          "internalType": "uint48",
          "name": "nbPendingRequests",
          "type": "uint48"
        },
        {
          "internalType": "uint40",
          "name": "expirationTime",
          "type": "uint40"
        },
        {
          "internalType": "address",
          "name": "owner",
          "type": "address"
        },
        {
          "internalType": "uint256",
          "name": "nbRequests",
          "type": "uint256"
        }
      ],
      "stateMutability": "view",
      "type": "function"
    },
    {
      "inputs": [
        {
          "internalType": "bytes20",
          "name": "_humanityId",
          "type": "bytes20"
        },
        {
          "internalType": "uint256",
          "name": "_requestId",
          "type": "uint256"
        }
      ],
      "name": "getNumberOfVouches",
      "outputs": [
        {
          "internalType": "uint256",
          "name": "",
          "type": "uint256"
        }
      ],
      "stateMutability": "view",
      "type": "function"
    },
    {
      "inputs": [
        {
          "internalType": "bytes20",
          "name": "_humanityId",
          "type": "bytes20"
        },
        {
          "internalType": "uint256",
          "name": "_requestId",
          "type": "uint256"
        }
      ],
      "name": "getRequestInfo",
      "outputs": [
        {
          "internalType": "bool",
          "name": "punishedVouch",
          "type": "bool"
        },
        {
          "internalType": "uint8",
          "name": "usedReasons",
          "type": "uint8"
        },
        {
          "internalType": "uint16",
          "name": "arbitratorDataId",
          "type": "uint16"
        },
        {
          "internalType": "uint16",
          "name": "lastChallengeId",
          "type": "uint16"
        },
        {
          "internalType": "uint40",
          "name": "challengePeriodStart",
          "type": "uint40"
        },
        {
          "internalType": "address payable",
          "name": "requester",
          "type": "address"
        },
        {
          "internalType": "address payable",
          "name": "ultimateChallenger",
          "type": "address"
        },
        {
          "internalType": "enum ProofOfHumanity.Status",
          "name": "status",
          "type": "uint8"
        },
        {
          "internalType": "enum ProofOfHumanity.Reason",
          "name": "currentReason",
          "type": "uint8"
        }
      ],
      "stateMutability": "view",
      "type": "function"
    },
    {
      "inputs": [
        {
          "internalType": "bytes20",
          "name": "_humanityId",
          "type": "bytes20"
        },
        {
          "internalType": "uint256",
          "name": "_requestId",
          "type": "uint256"
        },
        {
          "internalType": "uint256",
          "name": "_challengeId",
          "type": "uint256"
        },
        {
          "internalType": "uint256",
          "name": "_round",
          "type": "uint256"
        }
      ],
      "name": "getRoundInfo",
      "outputs": [
        {
          "internalType": "bool",
          "name": "appealed",
          "type": "bool"
        },
        {
          "internalType": "uint256",
          "name": "paidFeesRequester",
          "type": "uint256"
        },
        {
          "internalType": "uint256",
          "name": "paidFeesChallenger",
          "type": "uint256"
        },
        {
          "internalType": "enum ProofOfHumanity.Party",
          "name": "sideFunded",
          "type": "uint8"
        },
        {
          "internalType": "uint256",
          "name": "feeRewards",
          "type": "uint256"
        }
      ],
      "stateMutability": "view",
      "type": "function"
    },
    {
      "inputs": [],
      "name": "governor",
      "outputs": [
        {
          "internalType": "address",
          "name": "",
          "type": "address"
        }
      ],
      "stateMutability": "view",
      "type": "function"
    },
    {
      "inputs": [],
      "name": "humanityLifespan",
      "outputs": [
        {
          "internalType": "uint40",
          "name": "",
          "type": "uint40"
        }
      ],
      "stateMutability": "view",
      "type": "function"
    },
    {
      "inputs": [
        {
          "internalType": "address",
          "name": "_account",
          "type": "address"
        }
      ],
      "name": "humanityOf",
      "outputs": [
        {
          "internalType": "bytes20",
          "name": "humanityId",
          "type": "bytes20"
        }
      ],
      "stateMutability": "view",
      "type": "function"
    },
    {
      "inputs": [
        {
          "internalType": "address",
          "name": "_wNative",
          "type": "address"
        },
        {
          "internalType": "contract IArbitrator",
          "name": "_arbitrator",
          "type": "address"
        },
        {
          "internalType": "bytes",
          "name": "_arbitratorExtraData",
          "type": "bytes"
        },
        {
          "internalType": "string",
          "name": "_registrationMetaEvidence",
          "type": "string"
        },
        {
          "internalType": "string",
          "name": "_clearingMetaEvidence",
          "type": "string"
        },
        {
          "internalType": "uint256",
          "name": "_requestBaseDeposit",
          "type": "uint256"
        },
        {
          "internalType": "uint40",
          "name": "_humanityLifespan",
          "type": "uint40"
        },
        {
          "internalType": "uint40",
          "name": "_renewalPeriodDuration",
          "type": "uint40"
        },
        {
          "internalType": "uint40",
          "name": "_challengePeriodDuration",
          "type": "uint40"
        },
        {
          "internalType": "uint40",
          "name": "_failedRevocationCooldown",
          "type": "uint40"
        },
        {
          "internalType": "uint256[3]",
          "name": "_multipliers",
          "type": "uint256[3]"
        },
        {
          "internalType": "uint32",
          "name": "_requiredNumberOfVouches",
          "type": "uint32"
        }
      ],
      "name": "initialize",
      "outputs": [],
      "stateMutability": "nonpayable",
      "type": "function"
    },
    {
      "inputs": [],
      "name": "initialized",
      "outputs": [
        {
          "internalType": "bool",
          "name": "",
          "type": "bool"
        }
      ],
      "stateMutability": "view",
      "type": "function"
    },
    {
      "inputs": [
        {
          "internalType": "bytes20",
          "name": "_humanityId",
          "type": "bytes20"
        }
      ],
      "name": "isClaimed",
      "outputs": [
        {
          "internalType": "bool",
          "name": "",
          "type": "bool"
        }
      ],
      "stateMutability": "view",
      "type": "function"
    },
    {
      "inputs": [
        {
          "internalType": "address",
          "name": "_account",
          "type": "address"
        }
      ],
      "name": "isHuman",
      "outputs": [
        {
          "internalType": "bool",
          "name": "",
          "type": "bool"
        }
      ],
      "stateMutability": "view",
      "type": "function"
    },
    {
      "inputs": [],
      "name": "loserStakeMultiplier",
      "outputs": [
        {
          "internalType": "uint256",
          "name": "",
          "type": "uint256"
        }
      ],
      "stateMutability": "view",
      "type": "function"
    },
    {
      "inputs": [
        {
          "internalType": "bytes20",
          "name": "_humanityId",
          "type": "bytes20"
        },
        {
          "internalType": "uint256",
          "name": "_requestId",
          "type": "uint256"
        },
        {
          "internalType": "uint256",
          "name": "_iterations",
          "type": "uint256"
        }
      ],
      "name": "processVouches",
      "outputs": [],
      "stateMutability": "nonpayable",
      "type": "function"
    },
    {
      "inputs": [
        {
          "internalType": "address",
          "name": "_account",
          "type": "address"
        },
        {
          "internalType": "bytes20",
          "name": "_humanityId",
          "type": "bytes20"
        }
      ],
      "name": "removeVouch",
      "outputs": [],
      "stateMutability": "nonpayable",
      "type": "function"
    },
    {
      "inputs": [
        {
          "internalType": "string",
          "name": "_evidence",
          "type": "string"
        }
      ],
      "name": "renewHumanity",
      "outputs": [],
      "stateMutability": "payable",
      "type": "function"
    },
    {
      "inputs": [],
      "name": "renewalPeriodDuration",
      "outputs": [
        {
          "internalType": "uint40",
          "name": "",
          "type": "uint40"
        }
      ],
      "stateMutability": "view",
      "type": "function"
    },
    {
      "inputs": [],
      "name": "requestBaseDeposit",
      "outputs": [
        {
          "internalType": "uint256",
          "name": "",
          "type": "uint256"
        }
      ],
      "stateMutability": "view",
      "type": "function"
    },
    {
      "inputs": [],
      "name": "requiredNumberOfVouches",
      "outputs": [
        {
          "internalType": "uint32",
          "name": "",
          "type": "uint32"
        }
      ],
      "stateMutability": "view",
      "type": "function"
    },
    {
      "inputs": [
        {
          "internalType": "bytes20",
          "name": "_humanityId",
          "type": "bytes20"
        },
        {
          "internalType": "string",
          "name": "_evidence",
          "type": "string"
        }
      ],
      "name": "revokeHumanity",
      "outputs": [],
      "stateMutability": "payable",
      "type": "function"
    },
    {
      "inputs": [
        {
          "internalType": "uint256",
          "name": "_disputeId",
          "type": "uint256"
        },
        {
          "internalType": "uint256",
          "name": "_ruling",
          "type": "uint256"
        }
      ],
      "name": "rule",
      "outputs": [],
      "stateMutability": "nonpayable",
      "type": "function"
    },
    {
      "inputs": [],
      "name": "sharedStakeMultiplier",
      "outputs": [
        {
          "internalType": "uint256",
          "name": "",
          "type": "uint256"
        }
      ],
      "stateMutability": "view",
      "type": "function"
    },
    {
      "inputs": [
        {
          "internalType": "bytes20",
          "name": "_humanityId",
          "type": "bytes20"
        },
        {
          "internalType": "uint256",
          "name": "_requestId",
          "type": "uint256"
        },
        {
          "internalType": "string",
          "name": "_evidence",
          "type": "string"
        }
      ],
      "name": "submitEvidence",
      "outputs": [],
      "stateMutability": "nonpayable",
      "type": "function"
    },
    {
      "inputs": [
        {
          "internalType": "address",
          "name": "",
          "type": "address"
        },
        {
          "internalType": "address",
          "name": "",
          "type": "address"
        },
        {
          "internalType": "bytes20",
          "name": "",
          "type": "bytes20"
        }
      ],
      "name": "vouches",
      "outputs": [
        {
          "internalType": "bool",
          "name": "",
          "type": "bool"
        }
      ],
      "stateMutability": "view",
      "type": "function"
    },
    {
      "inputs": [],
      "name": "wNative",
      "outputs": [
        {
          "internalType": "address",
          "name": "",
          "type": "address"
        }
      ],
      "stateMutability": "view",
      "type": "function"
    },
    {
      "inputs": [],
      "name": "winnerStakeMultiplier",
      "outputs": [
        {
          "internalType": "uint256",
          "name": "",
          "type": "uint256"
        }
      ],
      "stateMutability": "view",
      "type": "function"
    },
    {
      "inputs": [
        {
          "internalType": "address payable",
          "name": "_beneficiary",
          "type": "address"
        },
        {
          "internalType": "bytes20",
          "name": "_humanityId",
          "type": "bytes20"
        },
        {
          "internalType": "uint256",
          "name": "_requestId",
          "type": "uint256"
        },
        {
          "internalType": "uint256",
          "name": "_challengeId",
          "type": "uint256"
        },
        {
          "internalType": "uint256",
          "name": "_round",
          "type": "uint256"
        }
      ],
      "name": "withdrawFeesAndRewards",
      "outputs": [],
      "stateMutability": "nonpayable",
      "type": "function"
    },
    {
      "inputs": [],
      "name": "withdrawRequest",
      "outputs": [],
      "stateMutability": "nonpayable",
      "type": "function"
    }
  ],
  "bytecode": "0x60808060405234610016576154ed908161001c8239f35b600080fdfe60a080604052600436101561001357600080fd5b600060805260003560e01c90816282a36d14613ed25750806302c69ac814613ea957806304226fc114613e8257806307675ebe14613d7a5780630c340a2414613d515780631232d6db14613cd5578063158ef93e14613cad5780631a355acb14613c405780631a7e5cc814613b9f5780631d51208514613b7f57806325f3d072146138615780632d68efc9146138385780632d9489c61461380f5780632e20f5b814613580578063311a6c5614613561578063380e687a1461346b5780633bd4ccae146133bc5780633fecb7d21461333857806341057263146132c057806341658341146132a057806343cef5fb14613232578063532897e01461319357806355a8e84814612ee4578063582650c714612ba55780635983f29514612ad25780635b28de05146129495780635f0bcccc14612456578063619a355014611d1a57806368c3d8ff14611c925780636981fc3d14611c72578063717f160014611bc55780637883018b14611b5e5780637b94338314611b3e5780638349143e14611a695780638480305614611a3f578063876c63d414611a155780638db402781461194b57806390546ba1146118d6578063961a6fed146118875780639b6c4948146117935780639c41ddfa1461174b578063abfbebaa146116ce578063ba7079ca146115ea578063d2c96e671461158f578063d67085cd146114f3578063d706be31146113b3578063d7e9f17814610cfe578063dd23686c14610c8c578063e274f78f14610bf9578063e4c0aaf414610b85578063eaa953eb1461044d578063ef0a30d61461042d578063f72c436f146104005763fa2a11741461027557600080fd5b6020806003193601126103fa5760043567ffffffffffffffff81116103fa576102a2903690600401613f51565b903360805152603d835260805190604082205460601b906001600160601b03198216809352603c85526080516040812054336001600160a01b038216036103f65761030064ffffffffff91828060055460281c169160a01c16615391565b42911610156103f3575061031382614e89565b926040518481527f09a7324d06a8059265cf96b96fc27702c59f14bd22868adc13bab98b6f0fbb34873392a3603b549160001983019283116103db576103aa6103b861037f7fdccf2f8b2cc26eafcd61905cba744cff4b81d14740725f6376390dc6298a6a3c95613fcd565b505460601c956040519283918a8301958690916001600160601b031960349316825260148201520190565b03601f1981018352826140a3565b519020936103d26040519283928884523398840191614542565b0390a460805180f35b634e487b7160e01b6080515260116004526024608051fd5b80fd5b5080fd5b60805180fd5b346103fa5760206003193601126103fa57602061042361041e613f25565b6152dd565b6040519015158152f35b346103fa57608051806003193601126103f3576020603b54604051908152f35b346103fa5760606003193601126103fa57610466613f25565b67ffffffffffffffff602435116103fa573660236024350112156103fa5767ffffffffffffffff60243560040135116103fa5736602480356004013560051b81350101116103fa5767ffffffffffffffff604435116103fa573660236044350112156103fa5767ffffffffffffffff60443560040135116103fa573660246044356004013560071b6044350101116103fa576001600160a01b03811660805152603d6020526080516001600160601b0319604082205460601b16809152603c6020526080519060408220916001600160a01b038416600052600283016020526040600020549081600019810111610b6f5750610569600019820160038501614563565b5060ff815460081c166004811015610b57576103fa5783546001600160a01b03811615908115610b2e575b50156103fa576080518052600381016020526080516002604082200160205260ff604082205416906003821015610b1857506001036103fa57608051600554905b600283015463ffffffff8360a01c16811015610a345760046044350135821080156109a157156109895760807fffffffffffffffffffffffffffffffffffffffffffffffffffffffffffffffdc8360071b60443501360301126103fa5760405180608081011067ffffffffffffffff60808301111761096e5760808101604052604435600784901b016024013564ffffffffff811690036109845760448035600785901b0160248101358352013560ff811690036103fa5760448035600785901b019081013560208301526064810135604083015260840135606082018190527f7fffffffffffffffffffffffffffffff5d576e7357a4501ddfe92f46681b20a0106103fa576080515460405160208101907f396b8143cb24d01c85cbad0682e0e83f2ea427a5b3cd56872e8e1b2a55d4c2ab82526001600160a01b038c16604082015289606082015264ffffffffff60248760071b6044350101351660808201526080815261074481614087565b519020604051917f19010000000000000000000000000000000000000000000000000000000000006020840152602283015260429081830152815280608081011067ffffffffffffffff60808301111761096e578060806020920160405280518282012060ff8385015116604085015190606086015192608085015260a084015260c083015260e082015260805180526080808051920160015afa156109615764ffffffffff6080515191511642105b610803575b50506001016105d5565b6001600160a01b03811660805152603d602052608051916040832054926001600160601b03198460601b169052603c60205260805160408120928354906001600160a01b0381166001600160a01b03831614918261094d575b508161093d575b81610926575b50610876575b50506107f9565b68010000000000000000821015610910575091600188926108a485838098970160028b015560028a016145f4565b81549060031b906001600160a01b03808716831b921b1916179055018460ff198254161790557f32d9c9fa0d68d72716d8ce6fb31141216cc8a7059b83f77c3a5c59041029ad7660206001600160601b0319604051936000198b01855260601b1692a39088808061086f565b634e487b7160e01b905260416004526024608051fd5b90506001600160a01b03808d16911614158c610869565b600185015460ff16159150610863565b60a01c64ffffffffff16421091508d61085c565b6040513d608051823e3d90fd5b634e487b7160e01b600052604160045260246000fd5b600080fd5b634e487b7160e01b6080515260326004526024608051fd5b506109b260443560040135836144d7565b602435600401358110156109895760248035600583901b0101356001600160a01b03811690036103fa576001600160a01b036024808360051b81350101359260051b81350101351660805152603e602052608051604081206001600160a01b038b16600052602052876040600020915260205260ff60406080512054166107f4565b7f2877755d0bfcc61f33777e553d07d014dbc656e06cd79f43f1b64e4f00d42eba602089610b0287610abb8c610a6d815460f01c6145a5565b7dffffffffffffffffffffffffffffffffffffffffffffffffffffffffffff7fffff00000000000000000000000000000000000000000000000000000000000083549260f01b169116179055565b805461ff00191661010017815560010180547fffffffffffffff0000000000ffffffffffffffffffffffffffffffffffffffff164260a01b64ffffffffff60a01b16179055565b6001600160a01b0360405191168152a160805180f35b634e487b7160e01b905260216004526024608051fd5b9050610b4d64ffffffffff91828060055460281c169160a01c16615391565b4291161086610594565b634e487b7160e01b6080515260216004526024608051fd5b634e487b7160e01b905260116004526024608051fd5b346103fa5760206003193601126103fa57610b9e613f25565b600254906001600160a01b039081831633036103fa577f5ffbefd23f1844198adf645535c8dce8d9f3f2f9f5e917bf4e3aa8fc90299a90926020926001600160a01b031992169182911617600255604051908152a160805180f35b346103fa5760206003193601126103fa576020610c14613f25565b6080516001600160a01b03809216809152603d835260805190604082205460601b926001600160601b0319928385169052603c85526080519160408320549182161490811591610c77575b50610c6f575b5060405191168152f35b915083610c65565b905064ffffffffff429160a01c161085610c5f565b346103fa5760206003193601126103fa57610ca5613f25565b6001600160a01b0390816002541633036103fa577f3b32abb06505ce03f2a401bfdbfa71d4a89311205a9cdea2ce8e580072b692769160209116806001600160a01b03196003541617600355604051908152a160805180f35b60606003193601126103fa57610d12613f25565b600360443510156103fa57604435156103fa576040517fafe15cfb00000000000000000000000000000000000000000000000000000000815260243560048201526040816024816001600160a01b0386165afa90811561096157608051908192611379575b5042811080611370575b156103fa576040517f1c3db16d0000000000000000000000000000000000000000000000000000000081526024803560048301526020908290816001600160a01b0388165afa908115610961576080519161133e575b506003811015610b5757604435810361130957505050600754905b6001600160a01b03811660805152603f60205260805160408120906024359052602052604060805120906001600160601b0319600160405193610e3485614057565b6bffffffffffffffffffffffff8154818116875260601c166020860152015460601b1680604084015260805152603c602052610e886003604060805120016bffffffffffffffffffffffff84511690614563565b50805490600460ff8360081c161015610b5757600260ff8360081c16036103fa576bffffffffffffffffffffffff6020850151166080515260038101602052608051604081209461ffff8654168092526002860160205260805190604082209760ff895416926003841015610b18575082604435146103fa5760206001610f1761ffff610f5099841c16613fcd565b5060405198899283927ff23f16e60000000000000000000000000000000000000000000000000000000084520160243560048401614645565b03816001600160a01b038b165afa95861561096157608051966112d3575b50612710610f7f610f869288615357565b0486615331565b906001600160601b0319604082015116906bffffffffffffffffffffffff602081835116920151169460805195838752603c6020526003610fce848260406080512001614563565b5082608051520160205260805182600260408320019152602052608051926040842061101085973496506001604435146000146112c857600283015490615345565b85811115611251575b50917f98404073f7b661e4551a5c0a9a3c840c5098f97bdac8e77b59f5a190caa77a4b959391600160e09694816044351460001461121a5733608051526004810160205260406080512061106e87825461470c565b90556002810161107f87825461470c565b90555b0161108e85825461470c565b905560405194855260208501526040840152606083015233608083015260a08201526110bf60c08201604435613faa565ba1806111fd575b50816111f3575b506110d9575b60805180f35b61ffff6110ea915460201c16613fcd565b506001600160a01b0383163b156103fa57604051907f49912f88000000000000000000000000000000000000000000000000000000008252818061113a6001608051940160243560048401614645565b0381856001600160a01b0388165af18015610961577fd1f7b47ffcfc21092e5d69c5e0221201d76f7ae2fce829a56736609ac0d71ac9956040956111c1936001936111e4575b5080547fffffffffffffffffffffffffffffffffffffffffffffffffffffffffffff000061ffff6111b28184166145a5565b16911617905501918254615345565b90556001600160a01b038251911681526024356020820152a180808080806110d3565b6111ed90614073565b88611180565b90501515866110cd565b611214906001600160a01b036001541690336153b1565b876110c6565b336080515260048101602052816040608051200161123987825461470c565b90556003810161124a87825461470c565b9055611082565b94509750945061126183346144d7565b946001978054600360ff82161015610b57576080518060ff83166112c25750604435905b6003821015610b18575060ff1660ff19919091161781557f98404073f7b661e4551a5c0a9a3c840c5098f97bdac8e77b59f5a190caa77a4b611019565b90611285565b600383015490615345565b9095506020813d602011611301575b816112ef602093836140a3565b810103126103fa575194612710610f6e565b3d91506112e2565b61131857505060065490610df2565b8061132661132c92426144d7565b926144d7565b60011c11156103fa5760085490610df2565b90506020813d602011611368575b81611359602093836140a3565b810103126103fa575184610dd7565b3d915061134c565b50814210610d81565b9150506040813d6040116113ab575b81611395604093836140a3565b810103126103fa57602081519101519083610d77565b3d9150611388565b346103fa5760406003193601126103fa5767ffffffffffffffff6004358181116103fa576113e5903690600401613f51565b916024359081116103fa576113fe903690600401613f51565b926001600160a01b036002541633036103fa57603b5460001981019081116103db576114cc61142f6114d192613fcd565b5080549361147f6bffffffffffffffffffffffff9561147560016114548984166144fa565b956040519361146285614057565b8a8816855260601c6020850152016140c6565b6040820152614233565b8461148983614517565b169060405160208152806114c47f61606860eb6c87306811e2695215385101daab53bd6ab4e9f9049aead9363c7d9a8b946020840191614542565b0390a2614517565b6144fa565b16926114ea604051928392602084526020840191614542565b0390a260805180f35b346103fa5760406003193601126103fa5761150c613f25565b611514613f0e565b3360805152603e602052608051916001600160a01b03604084209116809352602052608051906001600160601b031960408320911680925260205260406080512060ff1981541690556040519081527f6ae14847624957cf2112c1c3d80410e6fa44a38a65640d7bfa1684326eef267a60203392a360805180f35b346103fa5760206003193601126103fa576004356001600160a01b036002541633036103fa576020817f2c09dfb2735b21bb39f643ba7942ac5f61ba295e593d1268dee1c4f3eb241f8792600455604051908152a160805180f35b346103fa5760406003193601126103fa57611603613f25565b60243567ffffffffffffffff81116103fa57611623903690600401613f51565b90916001600160a01b03806002541633036103fa57603b549360001985019485116103db576116ac6116c5926bffffffffffffffffffffffff6116867f3fa176f6bb96e275276658d87e12d5b0460acbe0bc15d4272215730b1a19735a98613fcd565b505416946040519561169787614057565b865216938460208201526114753687856141ad565b6040519384938452604060208501526040840191614542565b0390a160805180f35b346103fa5760606003193601126103fa576116e7613f25565b6116ef613f3b565b604435916001600160601b031983168093036103fa576001600160a01b0380911660805152603e60205260805190604082209216905260205260805190604082209152602052602060ff60406080512054166040519015158152f35b346103fa5760606003193601126103fa57611764613ef7565b61176c613f3b565b90611775614212565b6001600160a01b036003541633036103fa57602092610423926143b8565b346103fa5760806003193601126103fa5760043564ffffffffff908181168091036103fa57602435908282168083036103fa576117ce614212565b9360643594818616928387036103fa576001600160a01b036002541633036103fa577f28fa89bb3cf73b722c122d873b01972d2f6e91b77e70091e59079949b321ee9c9660809669ffffffffff0000000000876001600160a01b031973ffffffffff0000000000000000000000000000006005549560781b169416179160281b16176effffffffff000000000000000000008460501b16171760055560405194855260208501521660408301526060820152a160805180f35b346103fa5760406003193601126103fa576001600160601b03196118a9613ef7565b1660805152603c602052602060026118cb602435600360406080512001614563565b500154604051908152f35b346103fa5760606003193601126103fa57600435602435604435916001600160a01b036002541633036103fa577fb634cb82566643f9c356737735d5efd14d50416b42d0130dc51efb2b30e92ece9260609282600655806007558160085560405192835260208301526040820152a160805180f35b346103fa5760a06003193601126103fa57611964613ef7565b608435906001600160a01b0382168092036103fa576001600160601b03191660805152602090603c825260036119a36024358260406080512001614563565b506044356080515201825260805160026040822001906064359052825260805190600460408320019152815260805190604082209060405192604084019084821067ffffffffffffffff8311176109105750604093829185526001845494858352015492839101528351928352820152f35b346103fa57608051806003193601126103f357602064ffffffffff60055460281c16604051908152f35b346103fa57608051806003193601126103f357602064ffffffffff60055460781c16604051908152f35b346103fa5760206003193601126103fa57611a82613f25565b6001600160a01b0390816003541633036103fa578116908160805152603d602052608051906001600160601b0319604083205460601b16809252603c602052608051916040832080549464ffffffffff8660a01c1693861603611b3a5782421015611b3a578460f01c611b3a5760ff600182015416611b3a576001600160a01b0319604095169055807fae36bccbd3f2d52f68869193680a9f87de51c66f345ff113017bf284437fa90185519480a282526020820152f35b8380fd5b346103fa57608051806003193601126103f3576020600754604051908152f35b346103fa5760206003193601126103fa576001600160601b0319611b80613ef7565b1660805152603c6020526020604060805120546001600160a01b03811615159081611bb1575b506040519015158152f35b64ffffffffff915060a01c16421082611ba6565b346103fa5760806003193601126103fa5760a0611be0613ef7565b6001600160601b0319606435911660805152603c6020526003611c0c6024358260406080512001614563565b50604435608051520160205260805190806040832092526002820160205261ffff6040608051209254161190611c6b6002820154916003810154600160ff83541692015493604051958652602086015260408501526060840190613faa565b6080820152f35b346103fa57608051806003193601126103f3576020600454604051908152f35b346103fa5760206003193601126103fa576001600160601b0319611cb4613ef7565b1660805152603c60205260c06040608051206001810154906001600160a01b03600382549201549160ff604051948181161515865260081c16151560208501528060f01c604085015264ffffffffff8160a01c16606085015216608083015260a0820152f35b60806003193601126103fa57611d2e613ef7565b600560443510156103fa5760643567ffffffffffffffff81116103fa57611d59903690600401613f51565b91906001600160601b0319821660805152603c602052611d83602435600360406080512001614563565b509182546044351560ff82161515036103fa57600460ff8260081c161015610b5757600160ff8260081c16036103fa576001840154611dd564ffffffffff91828060055460501c169160a01c1661460c565b164210156103fa5760ff8116156123f1575b50611eae83549367ffff000000000000611e0761ffff8760301c166145a5565b60301b167fffffffffffffffffffffffffffffffffffffffffffffffff0000ffffffffffff8616179283825561ffff8660301c1660805152600382016020526080516040812090805260028101602052611e76611e7061ffff6040608051209760201c16613fcd565b506145b8565b9460206001600160a01b038188015116604088015190604051808099819463f7434ea960e01b8352866004840152602483019061416d565b03915afa94851561096157608051956123bd575b50608051806001600160601b031985169052603c6020526003611eee6024358260406080512001614563565b5061ffff8b60301c1660805152016020526080516002604082200190805260205260805189604082203490611f2760038201548b615345565b82811115612363575b509160e09160017f98404073f7b661e4551a5c0a9a3c840c5098f97bdac8e77b59f5a190caa77a4b943360805152600481016020528160406080512001611f7884825461470c565b9055611f8883600383015461470c565b600382015501611f9982825461470c565b905561ffff604051926001600160601b03198b168452602435602085015260301c166040830152608051606083015233608083015260a0820152600260c0820152a180612346575b50156103fa57600101611ff5858254615345565b905560206120526001600160a01b03828801511660408801516040519788809481937fc13517e10000000000000000000000000000000000000000000000000000000083526002600484015260406024840152604483019061416d565b03925af193841561096157608051946122f2575b507f2955fabccd1323cfc9e4e01babe1dde9ad6a77f541ee466da23cb6b59f6cebab918185600160a0940155805461ffff6120a28183166145a5565b16907fffffffffffffffffff0000000000000000000000000000000000000000ff000076ffffffffffffffffffffffffffffffffffffffff0000003360181b169116171790556001600160a01b0360208701511660805152603f60205260805185604082209152602052604060805120600181018260601c6001600160a01b031982541617905580546dffff0000000000000000000000008a60301b16907fffffffffffffffff0000000000000000000000000000000000000000000000006bffffffffffffffffffffffff6024351691161717905583549361020061ff0019861617905561ffff60405160208101906121b8816103aa602435878690916001600160601b031960349316825260148201520190565b519020986001600160601b031960405193168352602435602084015260301c1660408201526121ec60608201604435614226565b846080820152a16001600160a01b036020840151169061221a6bffffffffffffffffffffffff855116614517565b60805160ff8193166000146122dd57506bffffffffffffffffffffffff60ff60015b16911601906bffffffffffffffffffffffff8211610b6f57507fdccf2f8b2cc26eafcd61905cba744cff4b81d14740725f6376390dc6298a6a3c936103d2936001600160a01b03937f74baab670a4015ab2f1b467c5252a96141a2573f2908e58a92081e80d3cfde3d60406020956bffffffffffffffffffffffff8251911681528b87820152a3015116926040519182916020835233976020840191614542565b60ff6bffffffffffffffffffffffff9161223c565b9093506020813d60201161233e575b8161230e602093836140a3565b810103126103fa5751927f2955fabccd1323cfc9e4e01babe1dde9ad6a77f541ee466da23cb6b59f6cebab612066565b3d9150612301565b61235d906001600160a01b036001541690336153b1565b8a611fe1565b93509350505061237381346144d7565b906001928054600360ff82161015610b57576080518060ff83166123b757506002905b6003821015610b18575060ff1660ff19919091161781558b919060e0611f30565b90612396565b9094506020813d6020116123e9575b816123d9602093836140a3565b810103126103fa57519389611ec2565b3d91506123cc565b6001600019604435011b60ff81168060ff808560181c169384191616036103fa577fffffffffffffffffffffffffffffffffffffffffffffffffffffffff0000ffff909216911860181b63ff000000161760443560101b62ff00001617835584611de7565b346103fa5760406003193601126103fa5761246f613ef7565b6001600160601b0319811660805152603c60205260406080512061249860243560038301614563565b509081549060ff8260081c166004811015610b57576001036103fa5760018301549164ffffffffff906124d78260055460501c16838660a01c1661460c565b8242911610156103fa5760029360ff82161561289257505081546001600160a01b03191682555060018101805461ff0019169055604080516001600160601b03198616815260243560208201527f1765930ce5b4d87513bdba895a4be9f23166d2a2e58528486aa13a1e9777c3709190a15b6125a8612559825460f01c6146e8565b82547dffffffffffffffffffffffffffffffffffffffffffffffffffffffffffff1660f09190911b7fffff00000000000000000000000000000000000000000000000000000000000016178255565b61030061ff00198454161780845560601c608051520160205260805180604081205560028201546125e6575b506110d391602435915460601c614719565b6001600160601b031983169052603c60205261260c602435600360406080512001614563565b50918254600460ff8260081c161015610b5757600360ff8260081c16036103fa57608051604082901c63ffffffff1690600a80830190811061288857925b6002870154808511612880575b506001600160a01b0360018801541615159182612842575b5050905b82811061270357505060607f0ea9225afd3b794f85bf77c0411d82716e0194af35a5fbb0318e135738622b2e91856110d396547fffffffffffffffffffffffffffffffffffffffff00000000ffffffffffffffff6bffffffff00000000000000008460401b169116179055604051906001600160601b03198516825260243560208301526040820152a1916125d4565b6001600160601b031961271982600289016145f4565b90549060031b1c60601b1660805152603c6020526080516040812090836001830160ff198154169055612751575b5050600101612673565b6001600160a01b0382541690526002810160205260805160408120549081600019810111610b6f5750908160001960019493016127e6575b506001600160a01b031981541690556001600160601b03196127ae8260028a016145f4565b90549060031b1c60601b167fae36bccbd3f2d52f68869193680a9f87de51c66f345ff113017bf284437fa90160805180a29087612747565b6127f860001985920160038401614563565b50017901000000000000000000000000000000000000000000000000007fffffffffffff00ffffffffffffffffffffffffffffffffffffffffffffffffff82541617905588612789565b909150600560ff8360101c161015610b185750600360ff8260101c161490811561286f575b50868061266f565b60101c60ff16600214905086612867565b935087612657565b506000199261264a565b60c81c60ff16156128a5575b5050612549565b612905916128cc9160601c6001600160a01b03198554161784558060055416904216615373565b82547fffffffffffffff0000000000ffffffffffffffffffffffffffffffffffffffff1660a09190911b64ffffffffff60a01b16178255565b604080516001600160601b03198616815260243560208201527f8f7a3d8342a820e0b4964cc989eda69c533342896a0fa4a8379336dc0904cbe99190a1848061289e565b60606003193601126103fa5761295d613ef7565b67ffffffffffffffff6024358181116103fa5761297e903690600401613f51565b9290916044359081116103fa57612999903690600401613f51565b6001600160601b031983929316908160805152603c602052608051604081209083156103f357506129c9336152dd565b6103fa57546001600160a01b03811615908115612abd575b50156103fa577f232b62ccd642d1d039274af0074c30e69d873550c013b4e01c8daa8957c27df0612a31612a1485614e89565b956040519182918883526040602084015233956040840191614542565b0390a3603b5460001981019081116103db577fdccf2f8b2cc26eafcd61905cba744cff4b81d14740725f6376390dc6298a6a3c916103aa612aa3612a776103d294613fcd565b505460601c9560405192839160208301958690916001600160601b031960349316825260148201520190565b519020936040519182916020835233976020840191614542565b905064ffffffffff429160a01c1610876129e1565b346103fa5760406003193601126103fa576001600160601b0319612af4613ef7565b1660805152603c602052612b12602435600360406080512001614563565b50600181015490549060ff8260081c166001600160a01b036040519260ff8160c81c161515845260ff8560181c16602085015261ffff808660201c1660408601528560301c16606085015264ffffffffff8160a01c1660808501528460601c60a08501521660c08301526004811015610b575761012092612ba39160e084015260ff61010084019160101c16614226565bf35b346103fa576101c06003193601126103fa57612bbf613f25565b612bc7613f3b565b9067ffffffffffffffff906044358281116103fa57366023820112156103fa57612bfb9036906024816004013591016141ad565b926064358381116103fa57612c149036906004016141f4565b926084359081116103fa57612c2d9036906004016141f4565b9360c4359264ffffffffff938481168091036103fa5760e4359480861686036103fa576101043581811681036103fa576101243591821682036103fa573661016312156103fa5760405196612c8188614057565b6101a4883682116103fa57610144905b828210612ed4575050359363ffffffff851685036103fa5760015460ff8160a01c166103fa576001600160a01b03809716907fffffffffffffffffffffff00000000000000000000000000000000000000000016177401000000000000000000000000000000000000000017600155336002546001600160a01b0319161760025560a4356004556005549489516006556020998a8101516007556040015160085560a01b77ffffffff000000000000000000000000000000000000000016947fffffffffffffffff00000000000000000000000000000000000000000000000016179060281b69ffffffffff000000000016179060501b6effffffffff0000000000000000000016179060781b73ffffffffff00000000000000000000000000000016171760055560405192612dc684614057565b608051845216838301526040820152612dde90614233565b604051818101907f8cad95687ba82c2ce50e74f7b754645e5117c3a5bec8151c0726d5857980a8668252604081017f6358f15b5db98e0f8cdb4c73845d2cf46001eb6a51ef69d17fe7ecb32c698593905246606082015230608082015260808152612e4881614087565b5190209160805192835560405192807f5daa87a0e9463431830481fd4b6e3403442dfb9a12b9c07597e9f61d50b633c891a181835260805190837f61606860eb6c87306811e2695215385101daab53bd6ab4e9f9049aead9363c7d948592858201612eb29161416d565b0390a26040519281849283528201612ec99161416d565b03600192a260805180f35b8135815260209182019101612c91565b60406003193601126103fa57612ef8613ef7565b60243567ffffffffffffffff81116103fa57612f18903690600401613f51565b90916001600160601b031981168060805152602093603c855260805192604084209283546001600160a01b0394858216151580613180575b1561317c57600181019660ff885460081c166103f357612f8364ffffffffff93848060055460781c169160c81c16615373565b8342911610156103f357506003810196612f9e88549861457f565b5080546bffffffffffffffffffff0000163360601b6001600160601b031916176101011781556101009361ff0019939061301190421660018401907fffffffffffffff0000000000ffffffffffffffffffffffffffffffffffffffff64ffffffffff60a01b83549260a01b169116179055565b603b549260001984019384116103db5761306a95611e70956130526130659561ffff881665ffff000000001965ffff0000000083549260201b169116179055565b825416179055610a6d815460f01c6145a5565b613fcd565b9061309f888084019360408886511691015190604051808095819463f7434ea960e01b8352866004840152602483019061416d565b03915afa908115610961576080519161314d575b506130c46130cb9160045490615331565b878561516b565b156103fa577fdccf2f8b2cc26eafcd61905cba744cff4b81d14740725f6376390dc6298a6a3c946103aa926103b8926040518981527fb6697909eec582d5785fd103a5bbc71c300a01363e9b0851dc98b3863f194f378c3392a35116956040519283918a8301958690916001600160601b031960349316825260148201520190565b90508881813d8311613175575b61316481836140a3565b810103126103fa57516130c46130b3565b503d61315a565b8680fd5b5064ffffffffff8260a01c164210612f50565b346103fa5760406003193601126103fa576131ac613f25565b6131b4613f0e565b3360805152603e602052608051916001600160a01b03604084209116809352602052608051906001600160601b0319604083209116809252602052604060805120600160ff198254161790556040519081527ffced1027392b70a905e87617060e83a8ed08f16c9efb3c924e2a9cea107d5e3560203392a360805180f35b346103fa5760206003193601126103fa57600435603b548110156103fa5761325990613fcd565b506132686001825492016140c6565b9061329c60405192826bffffffffffffffffffffffff859416845260601c602084015260606040840152606083019061416d565b0390f35b346103fa57608051806003193601126103f3576020600654604051908152f35b346103fa5760206003193601126103fa576001600160a01b036132e1613f25565b168060805152603d6020526080516001600160601b0319604082205460601b169052603c602052608051906002604083200191526020526080516040812054906000198201918211610b6f57602082604051908152f35b346103fa5760036001600160601b031961336e61335436613f7f565b9390911660805152603c6020528360406080512001614563565b5090608051520160205260806040815120612ba360018254920154916040519261ffff821684526001600160a01b038260181c166020850152604084015260ff606084019160101c16613faa565b346103fa5760206003193601126103fa5760043563ffffffff8116908181036103fa576001600160a01b036002541633036103fa577fff3d44f00660ec62abdd63baf9550fe23931a79581bfdf5622a5b2c594ad6192916020917fffffffffffffffff00000000ffffffffffffffffffffffffffffffffffffffff77ffffffff00000000000000000000000000000000000000006005549260a01b16911617600555604051908152a160805180f35b346103fa57608051806003193601126103f357339052603d602052608051604081205460601b906001600160601b031982169052603c602052608051906040822090600282019233905282602052608051916040832054926000198401938411610b6f57508260036134dd9201614563565b5060ff815460081c166004811015610b57576103fa577f29030057584927e75a81cbf28ced3280f7d7401c79886f779e7c6b20735970f2933360805152602052608051604081205561030061ff001982541617905561353d828233614719565b604080516001600160601b03199092168252602082019290925290819081016116c5565b346103fa5760406003193601126103fa576110d3602435600435614961565b346103fa5761358e36613f7f565b6001600160601b03198392931660805152603c6020526135b683600360406080512001614563565b509283549160ff8360081c166004811015610b57576003036103fa576135e663ffffffff8460401c168092615331565b926002860154808511613806575b5060018601546001600160a01b031615159060101c60ff16816137dd575b50905b83811061369e577f0ea9225afd3b794f85bf77c0411d82716e0194af35a5fbb0318e135738622b2e60608686868a80547fffffffffffffffffffffffffffffffffffffffff00000000ffffffffffffffff6bffffffff00000000000000008560401b1691161790556001600160601b03196040519316835260208301526040820152a160805180f35b6001600160601b03196136b482600289016145f4565b90549060031b1c60601b1660805152603c6020526080516040812090836001830160ff1981541690556136ec575b5050600101613615565b6001600160a01b0382541690526002810160205260805160408120549081600019810111610b6f575090816000196001949301613781575b506001600160a01b031981541690556001600160601b03196137498260028a016145f4565b90549060031b1c60601b167fae36bccbd3f2d52f68869193680a9f87de51c66f345ff113017bf284437fa90160805180a290876136e2565b61379360001985920160038401614563565b50017901000000000000000000000000000000000000000000000000007fffffffffffff00ffffffffffffffffffffffffffffffffffffffffffffffffff82541617905588613724565b90506005811015610b5757600381149081156137fb575b5086613612565b6002915014866137f4565b935060ff6135f4565b346103fa57608051806003193601126103f357602063ffffffff60055460a01c16604051908152f35b346103fa57608051806003193601126103f35760206001600160a01b0360015416604051908152f35b346103fa5760a06003193601126103fa576001600160a01b0360043516600435036103fa576001600160601b0319613897613f0e565b168060805152603c6020526138b6604435600360406080512001614563565b506064356080515260038101602052608051604081209060843590526002810160205260805190604082209160ff845460081c16906004821015610b1857506003036103fa576001600160a01b0360043516156103fa575490608051916001600160a01b03600435168352600482016020526080516040812094608435151591828093613b70575b156139d9575050505050507f360366835062312aa26bacfef3ae3d60ac62a2074d47fdb80239338db6efb130916139a38261398160a0945460018301549061470c565b905b60016080519182815501556001600160a01b0360015416906004356153b1565b6040519081526044356020820152606435604082015260843560608201526001600160a01b03600435166080820152a160805180f35b600360ff8560109998991c161015610b18575092827f360366835062312aa26bacfef3ae3d60ac62a2074d47fdb80239338db6efb1309795926139a39560ff60a0999660101c1615600014613a8057505050613a3e600382015460028301549061470c565b90613a4f600184015484549061470c565b9082613a5e575b505050613983565b60010154929350613a7792613a72916146f9565b614625565b90868080613a56565b60016001600160a01b0391015416806001600160a01b03600435161480613b66575b80613b5c575b15613ac25750505060010180546080519091559150613983565b15908115613b50575b8115613b48575b50613adf575b5050613983565b608051919060101c60ff166001148015613b3d576002820154925b83613b07575b5050613ad8565b50929350613b2792613a72919015613b315760018554915b0154906146f9565b9086808080613b00565b60018086015491613b1f565b600382015492613afa565b905089613ad2565b60643515159150613acb565b5060843515613aa8565b5060643515613aa2565b5061ffff84166084351461393e565b346103fa57608051806003193601126103f3576020600854604051908152f35b346103fa5760606003193601126103fa57613bb8613ef7565b6044359060243567ffffffffffffffff83116103fa577fdccf2f8b2cc26eafcd61905cba744cff4b81d14740725f6376390dc6298a6a3c613c006103d2943690600401613f51565b9490936001600160601b0319811660805152603c6020526103aa612aa3612a7761ffff613c3588600360406080512001614563565b505460201c16613fcd565b346103fa5760206003193601126103fa576001600160601b0319613c62613ef7565b1660805152603c6020526020608051604081205464ffffffffff8160a01c164210600014613ca7576001600160a01b039150165b6001600160a01b0360405191168152f35b50613c96565b346103fa57608051806003193601126103f357602060ff60015460a01c166040519015158152f35b346103fa5760406003193601126103fa576001600160a01b03613cf6613f25565b1660805152603f6020526080516040812090602435905260205260606040608051206001600160601b031960018254920154604051926bffffffffffffffffffffffff908181168552851c166020840152831b166040820152f35b346103fa57608051806003193601126103f35760206001600160a01b0360025416604051908152f35b60406003193601126103fa57613d8e613ef7565b602435906001600160601b0319811660805152602091603c8352613dba81600360406080512001614563565b505460ff8160081c166004811015610b57576103fa5783613de6611e7061ffff613e1b94841c16613fcd565b60406001600160a01b03838301511691015190604051808095819463f7434ea960e01b8352866004840152602483019061416d565b03915afa9384156109615760805194613e4e575b5050613e41613e479360045490615331565b9161516b565b5060805180f35b90809450813d8311613e7b575b613e6581836140a3565b810103126103fa57613e41613e47935193613e2f565b503d613e5b565b346103fa57608051806003193601126103f357602064ffffffffff60055416604051908152f35b346103fa57608051806003193601126103f35760206001600160a01b0360035416604051908152f35b346109845760006003193601126109845760209064ffffffffff60055460501c168152f35b600435906001600160601b03198216820361098457565b602435906001600160601b03198216820361098457565b600435906001600160a01b038216820361098457565b602435906001600160a01b038216820361098457565b9181601f840112156109845782359167ffffffffffffffff8311610984576020838186019501011161098457565b6003196060910112610984576004356001600160601b03198116810361098457906024359060443590565b906003821015613fb75752565b634e487b7160e01b600052602160045260246000fd5b603b5481101561400757603b60005260011b7fbbe3212124853f8b0084a66a2d057c2966e251e132af3691db153ab65f0d1a4d0190600090565b634e487b7160e01b600052603260045260246000fd5b90600182811c9216801561404d575b602083101461403757565b634e487b7160e01b600052602260045260246000fd5b91607f169161402c565b6060810190811067ffffffffffffffff82111761096e57604052565b67ffffffffffffffff811161096e57604052565b60a0810190811067ffffffffffffffff82111761096e57604052565b90601f601f19910116810190811067ffffffffffffffff82111761096e57604052565b90604051918260008254926140da8461401d565b9081845260019485811690816000146141495750600114614106575b5050614104925003836140a3565b565b9093915060005260209081600020936000915b818310614131575050614104935082010138806140f6565b85548884018501529485019487945091830191614119565b905061410495506020935060ff1991501682840152151560051b82010138806140f6565b919082519283825260005b848110614199575050601f19601f8460006020809697860101520116010190565b602081830181015184830182015201614178565b92919267ffffffffffffffff821161096e57604051916141d76020601f19601f84011601846140a3565b829481845281830111610984578281602093846000960137010152565b9080601f830112156109845781602061420f933591016141ad565b90565b6044359064ffffffffff8216820361098457565b906005821015613fb75752565b603b546801000000000000000081101561096e57614258600191828101603b55613fcd565b9190916143a257825160208085015160601b6001600160601b0319166bffffffffffffffffffffffff929092169190911783559160409082019301519182519267ffffffffffffffff841161096e576142b1855461401d565b601f8111614359575b5081601f85116001146142f457506000918491826142e7575b505060001991921b9260031b1c1916179055565b01519150600019386142d3565b919084601f19819596168760005284600020946000905b8883831061433f5750505010614326575b505050811b019055565b015160001960f88460031b161c1916905538808061431c565b85870151885590960195948501948793509081019061430b565b6000868152838120601f870160051c810192858810614398575b601f0160051c019185905b83811061438d575050506142ba565b82815501859061437e565b9092508290614373565b634e487b7160e01b600052600060045260246000fd5b906001600160601b03199283831692600090848252602093603c85526040928381208054926001600160a01b03908185161515806144c4575b6144b6571698898352603d88528583205460601b168252603c87526002858320018983528752848220546103f657918464ffffffffff949261449b887f4a05b98253015fe18cb57d239b4209ea44674e1b9a7c9bf0889d401d97152b149a9998968d6001600160a01b0319809716178155907fffffffffffffff0000000000ffffffffffffffffffffffffffffffffffffffff64ffffffffff60a01b83549260a01b169116179055565b603d8852209160601c908254161790555191168152a3600190565b505050965050505050505090565b5064ffffffffff8560a01c1642106143f1565b919082039182116144e457565b634e487b7160e01b600052601160045260246000fd5b9060016bffffffffffffffffffffffff809316019182116144e457565b60011b906c01fffffffffffffffffffffffe6bfffffffffffffffffffffffe8316921682036144e457565b601f8260209493601f19938186528686013760008582860101520116010190565b80548210156140075760005260206000209060021b0190600090565b80546801000000000000000081101561096e576145a191600182018155614563565b9091565b61ffff8091169081146144e45760010190565b906040516145c581614057565b60406145ef6001839580546bffffffffffffffffffffffff8116865260601c6020860152016140c6565b910152565b80548210156140075760005260206000200190600090565b91909164ffffffffff808094169116019182116144e457565b811561462f570490565b634e487b7160e01b600052601260045260246000fd5b9190825260209160408382015260009282546146608161401d565b9384604085015260019182811690816000146146c25750600114614687575b505050505090565b6000908152828120949550935b8585106146ae57505050606092500101388080808061467f565b805485850160600152938201938101614694565b925050506060945060ff1991509291921683830152151560051b0101388080808061467f565b61ffff1680156144e4576000190190565b818102929181159184041417156144e457565b919082018092116144e457565b9291906001600160601b031916906000828152603c602052600391604090614745818584862001614563565b5083805284810160205282842094600286016020528385209060ff835460081c16600481101561494d578103614949576001600160a01b0391828b169788156149455760ff905460101c16918794898952600483016020528789209382811015614931579861482b947f360366835062312aa26bacfef3ae3d60ac62a2074d47fdb80239338db6efb1309d9e94829a9894839a989460a09f9e9d8e81156000146148655750505081015460028201546147fd9161470c565b9061480e600184015484549061470c565b9082614845575b5050506001905b828155015560015416916153b1565b8151958652602086015284015260608301526080820152a1565b600193965061485c929184613a72920154906146f9565b93903880614815565b876001999493969980970154168091148061492a575b80614923575b1561489a5750505050906001910193828554955561481c565b97949193929715801561491c575b8015614915575b6148c0575b5050505060019061481c565b811492831561490c57506002820154925b83156148b457600194975091613a72916148f89493600014614902578854910154906146f9565b93903880806148b4565b8089015491613b1f565b820154926148d1565b50856148af565b50856148a8565b5085614881565b508561487b565b60248a634e487b7160e01b81526021600452fd5b8780fd5b8580fd5b602487634e487b7160e01b81526021600452fd5b6000338152603f6020526040812082825260205260408120926001600160601b031960016040519561499287614057565b6bffffffffffffffffffffffff8154818116895260601c166020880152015460601b168060408601528252603c60205260408220916149e36bffffffffffffffffffffffff86511660038501614563565b50916bffffffffffffffffffffffff6020870151168252600383016020526040822080549161ffff831684526002820160205260408420908554614a2d61ffff8260201c16613fcd565b5033905460601c036149495760081c60ff166004811015614e7557600203614e71576003811015614e5d57905460ff166003811015614e5d5760018103614e2b5750506001955b6003871015614e17577fffffffffffffffffffffffffffffffffffffffffffffffffffffffffff00ffff928362ff00008960101b169116178092556040518781527f394027a5fa6e098a1191094d1719d6929b9abc535fcc0c8f448d6a4e7562227660203392a3835460ff1615614c305750509360016002949581850161ff001981541690559514600014614bdf5782546001600160a01b0319168355604081810151915181516001600160601b031990931683526bffffffffffffffffffffffff1660208301527f1765930ce5b4d87513bdba895a4be9f23166d2a2e58528486aa13a1e9777c37091a15b614bbf614b70835460f01c6146e8565b83547dffffffffffffffffffffffffffffffffffffffffffffffffffffffffffff1660f09190911b7fffff00000000000000000000000000000000000000000000000000000000000016178355565b61030061ff00198254161780915560601c60005201602052604060002055565b5081547fffff0000000000ffffffffffffffffffffffffffffffffffffffffffffffffff164260c81b7dffffffffff0000000000000000000000000000000000000000000000000016178255614b60565b90919460018114600014614ddc5750506001820160ff815460c81c1615614c5e575b50506002929350614b60565b8254600f60ff8260181c1614600014614d34575050507f8f7a3d8342a820e0b4964cc989eda69c533342896a0fa4a8379336dc0904cbe960029394825460601c6001600160a01b0319855416178455614cff614cc664ffffffffff8060055416904216615373565b85547fffffffffffffff0000000000ffffffffffffffffffffffffffffffffffffffff1660a09190911b64ffffffffff60a01b16178555565b604081810151915181516001600160601b031990931683526bffffffffffffffffffffffff16602083015290a1839238614c52565b61ff00191661010017835580547fffffffffffffff0000000000ffffffffffffffffffffffffffffffffffffffff164260a01b64ffffffffff60a01b161790557f4d7ce05e7262b90adcd7951a324ec6d91b25b50f622241269a04fa2c26bc3f2e9460609450925081541690556001600160601b0319604082015116906bffffffffffffffffffffffff602081835116920151169060405192835260208301526040820152a1565b60029596508591925014614df1575b50614b60565b6001600160a01b03600183019160181c166001600160a01b031982541617905538614deb565b602484634e487b7160e01b81526021600452fd5b9096907ffffffffffffffffffffffffffffffffffffffffffffffffffffffffffffffffe01614a745760029650614a74565b602485634e487b7160e01b81526021600452fd5b8480fd5b602486634e487b7160e01b81526021600452fd5b9060003381526020603d81526001600160601b0319604090808285205460601b168452603c8352600282852001338552835281842054611b3a57851690818452603c83528084206003810196614ee088549861457f565b5080546bffffffffffffffffffffffff163360601b6001600160601b03191617815591603b5492600019840193841161515757805465ffff000000001916602085901b65ffff00000000161790556001890190818a116151575791614f6f93916002611e7094338b5201885285892055603d87528488209060601c6001600160a01b0319825416179055613fcd565b93614fa9846001600160a01b039684888383015116910151908551808095819463f7434ea960e01b8352866004840152602483019061416d565b03915afa801561514d57829061511e575b614fc8915060045490615331565b91838252603c85526003614fe0898284862001614563565b5083805201855260028183200185528781832095839634956150086002830191825490615345565b878111156150b0575b5092859392600160e09896937f98404073f7b661e4551a5c0a9a3c840c5098f97bdac8e77b59f5a190caa77a4b9a98953387526004820184528587206150588a825461470c565b905561506589825461470c565b90550161507387825461470c565b90558251968752860152840152606083015233608083015260a0820152600160c0820152a1806150a1575050565b614104916001541690336153b1565b965097509091506150c185346144d7565b96815460ff8116600381101561494d576151185760015b600381101561494d5760ff1660ff19919091161782558a9291907f98404073f7b661e4551a5c0a9a3c840c5098f97bdac8e77b59f5a190caa77a4b615011565b856150d8565b508481813d8311615146575b61513481836140a3565b810103126103f657614fc89051614fba565b503d61512a565b83513d84823e3d90fd5b602488634e487b7160e01b81526011600452fd5b9291926000936001600160601b03196000921691828152603c60205260406003615199868284862001614563565b508380520160205260028183200160205280822094829534946151c26002830191825490615345565b86811115615272575b5092849260017f98404073f7b661e4551a5c0a9a3c840c5098f97bdac8e77b59f5a190caa77a4b98969360e098963386526004820160205284862061521189825461470c565b905561521e88825461470c565b90550161522c86825461470c565b905581519586526020860152840152606083015233608083015260a0820152600160c0820152a18061525b5750565b614104906001600160a01b036001541690336153b1565b95509850955061528284346144d7565b95600198815460ff8116600381101561494d576152d7578a5b600381101561494d5760ff1660ff19919091161782557f98404073f7b661e4551a5c0a9a3c840c5098f97bdac8e77b59f5a190caa77a4b6151cb565b8561529b565b6001600160a01b0380911680600052603d6020526001600160601b031960406000205460601b16600052603c602052604060002054918216149081615320575090565b64ffffffffff915060a01c16421090565b90810190811061533e5790565b5060001990565b808211615350570390565b5050600090565b9081156153505761536b8183029283614625565b0361533e5790565b90810164ffffffffff908116918116821061538c575090565b905090565b9064ffffffffff91828116838316116153a957031690565b505050600090565b906001600160a01b03809216916000938483858282156154ae575b839283928392f16154a7571691823b15611b3a576040517fd0e30db0000000000000000000000000000000000000000000000000000000008152848160048186885af1801561549c57615489575b50823b15611b3a5790604484928360405195869485937fa9059cbb000000000000000000000000000000000000000000000000000000008552600485015260248401525af1801561547e5761546d575050565b6154778291614073565b6103f35750565b6040513d84823e3d90fd5b61549590949194614073565b923861541a565b6040513d87823e3d90fd5b5050505050565b506108fc6153cc56fea2646970667358221220294cc3207c26d380cb1a9ac1013a58a2ec4d0a610a67de161dc5b16ef050ca5c64736f6c63430008140033",
  "linkReferences": {},
  "deployedLinkReferences": {}
}